{"contracts/NFTMarketplace.sol":{"NFTMarketplace":{"abi":[{"inputs":[{"internalType":"address","name":"_nftContract","type":"address"},{"internalType":"address","name":"_gToken","type":"address"},{"internalType":"address","name":"_ubaToken","type":"address"}],"stateMutability":"nonpayable","type":"constructor"},{"anonymous":false,"inputs":[{"indexed":true,"internalType":"uint256","name":"offerId","type":"uint256"},{"indexed":true,"internalType":"address","name":"accepter","type":"address"},{"indexed":false,"internalType":"uint256","name":"tokenId","type":"uint256"}],"name":"OfferAccepted","type":"event"},{"anonymous":false,"inputs":[{"indexed":true,"internalType":"uint256","name":"offerId","type":"uint256"},{"indexed":true,"internalType":"address","name":"creator","type":"address"},{"indexed":false,"internalType":"enum NFTMarketplace.Rarity","name":"nftRarity","type":"uint8"},{"indexed":false,"internalType":"uint256","name":"bribeAmount","type":"uint256"}],"name":"OfferCreated","type":"event"},{"anonymous":false,"inputs":[{"indexed":false,"internalType":"enum NFTMarketplace.Rarity","name":"rarity","type":"uint8"},{"indexed":false,"internalType":"uint256","name":"price","type":"uint256"}],"name":"RarityPriceSet","type":"event"},{"anonymous":false,"inputs":[{"indexed":false,"internalType":"uint256","name":"startId","type":"uint256"},{"indexed":false,"internalType":"uint256","name":"endId","type":"uint256"},{"indexed":false,"internalType":"enum NFTMarketplace.Rarity","name":"rarity","type":"uint8"}],"name":"RarityRangeSet","type":"event"},{"inputs":[{"internalType":"uint256","name":"offerId","type":"uint256"},{"internalType":"uint256","name":"tokenId","type":"uint256"}],"name":"acceptOffer","outputs":[],"stateMutability":"nonpayable","type":"function"},{"inputs":[],"name":"admin","outputs":[{"internalType":"address","name":"","type":"address"}],"stateMutability":"view","type":"function"},{"inputs":[{"internalType":"enum NFTMarketplace.Rarity","name":"_rarity","type":"uint8"},{"internalType":"uint256","name":"_bribeAmount","type":"uint256"}],"name":"createOffer","outputs":[],"stateMutability":"nonpayable","type":"function"},{"inputs":[],"name":"gToken","outputs":[{"internalType":"contract IBERA20","name":"","type":"address"}],"stateMutability":"view","type":"function"},{"inputs":[{"internalType":"address","name":"user","type":"address"}],"name":"getOffersByUser","outputs":[{"components":[{"internalType":"enum NFTMarketplace.Rarity","name":"nftRarity","type":"uint8"},{"internalType":"uint256","name":"bribeAmount","type":"uint256"},{"internalType":"address","name":"offerCreator","type":"address"},{"internalType":"bool","name":"isActive","type":"bool"}],"internalType":"struct NFTMarketplace.Offer[]","name":"","type":"tuple[]"}],"stateMutability":"view","type":"function"},{"inputs":[{"internalType":"uint256","name":"tokenId","type":"uint256"}],"name":"getRarity","outputs":[{"internalType":"enum NFTMarketplace.Rarity","name":"","type":"uint8"}],"stateMutability":"view","type":"function"},{"inputs":[],"name":"nftContract","outputs":[{"internalType":"contract IBERA721","name":"","type":"address"}],"stateMutability":"view","type":"function"},{"inputs":[],"name":"offerCounter","outputs":[{"internalType":"uint256","name":"","type":"uint256"}],"stateMutability":"view","type":"function"},{"inputs":[{"internalType":"uint256","name":"","type":"uint256"}],"name":"offers","outputs":[{"internalType":"enum NFTMarketplace.Rarity","name":"nftRarity","type":"uint8"},{"internalType":"uint256","name":"bribeAmount","type":"uint256"},{"internalType":"address","name":"offerCreator","type":"address"},{"internalType":"bool","name":"isActive","type":"bool"}],"stateMutability":"view","type":"function"},{"inputs":[{"internalType":"enum NFTMarketplace.Rarity","name":"","type":"uint8"}],"name":"rarityPrices","outputs":[{"internalType":"uint256","name":"","type":"uint256"}],"stateMutability":"view","type":"function"},{"inputs":[{"internalType":"uint256","name":"","type":"uint256"}],"name":"rarityRanges","outputs":[{"internalType":"uint256","name":"startId","type":"uint256"},{"internalType":"uint256","name":"endId","type":"uint256"},{"internalType":"enum NFTMarketplace.Rarity","name":"rarity","type":"uint8"}],"stateMutability":"view","type":"function"},{"inputs":[{"internalType":"uint256","name":"startId","type":"uint256"},{"internalType":"uint256","name":"endId","type":"uint256"},{"internalType":"enum NFTMarketplace.Rarity","name":"_rarity","type":"uint8"}],"name":"setNFTsRange","outputs":[],"stateMutability":"nonpayable","type":"function"},{"inputs":[{"internalType":"enum NFTMarketplace.Rarity","name":"_rarity","type":"uint8"},{"internalType":"uint256","name":"_price","type":"uint256"}],"name":"setRarityPrice","outputs":[],"stateMutability":"nonpayable","type":"function"},{"inputs":[],"name":"ubaToken","outputs":[{"internalType":"contract IBERA20","name":"","type":"address"}],"stateMutability":"view","type":"function"}],"evm":{"bytecode":{"linkReferences":{},"object":"608060405234801561001057600080fd5b506040516112e13803806112e183398101604081905261002f91610099565b60008054336001600160a01b03199182161782556001805482166001600160a01b039687161790556002805482169486169490941790935560038054909316919093161790556008556100dc565b80516001600160a01b038116811461009457600080fd5b919050565b6000806000606084860312156100ae57600080fd5b6100b78461007d565b92506100c56020850161007d565b91506100d36040850161007d565b90509250925092565b6111f6806100eb6000396000f3fe608060405234801561001057600080fd5b50600436106100ea5760003560e01c8063b7a3c1da1161008c578063c760008111610066578063c760008114610240578063d56d229d14610260578063e98c9bfe14610273578063f851a4401461028657600080fd5b8063b7a3c1da14610203578063b91184891461021a578063bf3cb7c71461022d57600080fd5b806380a5c80d116100c857806380a5c80d1461015857806381257bd51461017a5780638a72ea6a1461018d5780639618b333146101e357600080fd5b8063181df8c9146100ef578063487586971461010457806376ffb9bd1461012d575b600080fd5b6101026100fd366004610ec7565b610299565b005b610117610112366004610ef1565b6105de565b6040516101249190610f42565b60405180910390f35b600254610140906001600160a01b031681565b6040516001600160a01b039091168152602001610124565b61016b610166366004610ef1565b6106e2565b60405161012493929190610f56565b610102610188366004610f79565b610718565b6101d361019b366004610ef1565b60046020526000908152604090208054600182015460029092015460ff91821692916001600160a01b03821691600160a01b90041684565b6040516101249493929190610f9b565b6101f66101f1366004610fe7565b610b33565b604051610124919061100b565b61020c60085481565b604051908152602001610124565b610102610228366004611081565b610ce4565b61010261023b366004610ec7565b610e12565b61020c61024e3660046110b6565b60056020526000908152604090205481565b600154610140906001600160a01b031681565b600354610140906001600160a01b031681565b600054610140906001600160a01b031681565b6000600560008460028111156102b1576102b1610f0a565b60028111156102c2576102c2610f0a565b81526020019081526020016000205490506000811161031f5760405162461bcd60e51b8152602060048201526014602482015273496e76616c69642072617269747920707269636560601b60448201526064015b60405180910390fd5b6002546040516323b872dd60e01b8152336004820152306024820152604481018390526001600160a01b03909116906323b872dd906064016020604051808303816000875af1158015610376573d6000803e3d6000fd5b505050506040513d601f19601f8201168201806040525081019061039a91906110d1565b6103e05760405162461bcd60e51b815260206004820152601760248201527611cb551bdad95b881d1c985b9cd9995c8819985a5b1959604a1b6044820152606401610316565b6003546040516323b872dd60e01b8152336004820152306024820152604481018490526001600160a01b03909116906323b872dd906064016020604051808303816000875af1158015610437573d6000803e3d6000fd5b505050506040513d601f19601f8201168201806040525081019061045b91906110d1565b6104a35760405162461bcd60e51b8152602060048201526019602482015278155090481d1bdad95b881d1c985b9cd9995c8819985a5b1959603a1b6044820152606401610316565b60405180608001604052808460028111156104c0576104c0610f0a565b8152602080820185905233604080840191909152600160609093018390526008546000908152600490925290208251815491929091839160ff199091169083600281111561051057610510610f0a565b0217905550602082810151600180840191909155604080850151600290940180546060909601511515600160a01b026001600160a81b03199096166001600160a01b03909516949094179490941790925533600081815260068352848120600880548254968701835591835293909120909301929092555491519091907f99c349ecd9d4c83c06a462c27f5932db1ce441cdd3f99a3ff978030bb2909b1d906105bc90879087906110f3565b60405180910390a3600880549060006105d48361110e565b9190505550505050565b6000805b60075481101561068257600781815481106105ff576105ff611135565b906000526020600020906003020160000154831015801561064457506007818154811061062e5761062e611135565b9060005260206000209060030201600101548311155b1561067a576007818154811061065c5761065c611135565b600091825260209091206002600390920201015460ff169392505050565b6001016105e2565b5060405162461bcd60e51b815260206004820152602e60248201527f4e465420494420646f6573206e6f74206d6174636820616e7920646566696e6560448201526d64207261726974792072616e676560901b6064820152608401610316565b600781815481106106f257600080fd5b600091825260209091206003909102018054600182015460029092015490925060ff1683565b6001546040516331a9108f60e11b815260048101839052829133916001600160a01b0390911690636352211e90602401602060405180830381865afa158015610765573d6000803e3d6000fd5b505050506040513d601f19601f82011682018060405250810190610789919061114b565b6001600160a01b0316146107d35760405162461bcd60e51b81526020600482015260116024820152702737ba103a34329027232a1037bbb732b960791b6044820152606401610316565b60008381526004602052604090206002810154600160a01b900460ff166108325760405162461bcd60e51b81526020600482015260136024820152724f66666572206973206e6f742061637469766560681b6044820152606401610316565b805460ff16600281111561084857610848610f0a565b610851846105de565b600281111561086257610862610f0a565b146108a55760405162461bcd60e51b815260206004820152601360248201527209c8ca840e4c2e4d2e8f240dad2e6dac2e8c6d606b1b6044820152606401610316565b60015460028201546040516323b872dd60e01b81523360048201526001600160a01b039182166024820152604481018690529116906323b872dd90606401600060405180830381600087803b1580156108fd57600080fd5b505af1158015610911573d6000803e3d6000fd5b50506002805484546001600160a01b03909116935063a9059cbb9250339160059160009160ff9091169081111561094a5761094a610f0a565b600281111561095b5761095b610f0a565b8152602001908152602001600020546040518363ffffffff1660e01b815260040161099b9291906001600160a01b03929092168252602082015260400190565b6020604051808303816000875af11580156109ba573d6000803e3d6000fd5b505050506040513d601f19601f820116820180604052508101906109de91906110d1565b610a245760405162461bcd60e51b815260206004820152601760248201527611cb551bdad95b881d1c985b9cd9995c8819985a5b1959604a1b6044820152606401610316565b600354600182015460405163a9059cbb60e01b815233600482015260248101919091526001600160a01b039091169063a9059cbb906044016020604051808303816000875af1158015610a7b573d6000803e3d6000fd5b505050506040513d601f19601f82011682018060405250810190610a9f91906110d1565b610ae75760405162461bcd60e51b8152602060048201526019602482015278155090481d1bdad95b881d1c985b9cd9995c8819985a5b1959603a1b6044820152606401610316565b60028101805460ff60a01b19169055604051838152339085907fea555ab99331ceac5051c58f17cc7b411b30241b0e28cb93a7d3a24c77a7a9a99060200160405180910390a350505050565b6001600160a01b0381166000908152600660209081526040808320805482518185028101850190935280835260609493830182828015610b9257602002820191906000526020600020905b815481526020019060010190808311610b7e575b505050505090506000815167ffffffffffffffff811115610bb557610bb5611168565b604051908082528060200260200182016040528015610c0757816020015b604080516080810182526000808252602080830182905292820181905260608201528252600019909201910181610bd35790505b50905060005b8251811015610cdc5760046000848381518110610c2c57610c2c611135565b602002602001015181526020019081526020016000206040518060800160405290816000820160009054906101000a900460ff166002811115610c7157610c71610f0a565b6002811115610c8257610c82610f0a565b8152600182015460208201526002909101546001600160a01b0381166040830152600160a01b900460ff1615156060909101528251839083908110610cc957610cc9611135565b6020908102919091010152600101610c0d565b509392505050565b6000546001600160a01b03163314610d0e5760405162461bcd60e51b81526004016103169061117e565b818310610d4d5760405162461bcd60e51b815260206004820152600d60248201526c496e76616c69642072616e676560981b6044820152606401610316565b60076040518060600160405280858152602001848152602001836002811115610d7857610d78610f0a565b9052815460018181018455600093845260209384902083516003909302019182559282015181840155604082015160028083018054949593949293909260ff1916918490811115610dcb57610dcb610f0a565b021790555050507f421d9a531b66de7cabba051d520ca8cfb2454f69e63c23d90c34541d26c5fcba838383604051610e0593929190610f56565b60405180910390a1505050565b6000546001600160a01b03163314610e3c5760405162461bcd60e51b81526004016103169061117e565b8060056000846002811115610e5357610e53610f0a565b6002811115610e6457610e64610f0a565b8152602001908152602001600020819055507f5958ab81d0c68338b40b8844eeee18551848c9d7519a781ce506f5410f154ab28282604051610ea79291906110f3565b60405180910390a15050565b803560038110610ec257600080fd5b919050565b60008060408385031215610eda57600080fd5b610ee383610eb3565b946020939093013593505050565b600060208284031215610f0357600080fd5b5035919050565b634e487b7160e01b600052602160045260246000fd5b60038110610f3e57634e487b7160e01b600052602160045260246000fd5b9052565b60208101610f508284610f20565b92915050565b8381526020810183905260608101610f716040830184610f20565b949350505050565b60008060408385031215610f8c57600080fd5b50508035926020909101359150565b60808101610fa98287610f20565b60208201949094526001600160a01b039290921660408301521515606090910152919050565b6001600160a01b0381168114610fe457600080fd5b50565b600060208284031215610ff957600080fd5b813561100481610fcf565b9392505050565b602080825282518282018190526000919060409081850190868401855b8281101561107457815161103d858251610f20565b8087015185880152858101516001600160a01b03168686015260609081015115159085015260809093019290850190600101611028565b5091979650505050505050565b60008060006060848603121561109657600080fd5b83359250602084013591506110ad60408501610eb3565b90509250925092565b6000602082840312156110c857600080fd5b61100482610eb3565b6000602082840312156110e357600080fd5b8151801515811461100457600080fd5b604081016111018285610f20565b8260208301529392505050565b60006001820161112e57634e487b7160e01b600052601160045260246000fd5b5060010190565b634e487b7160e01b600052603260045260246000fd5b60006020828403121561115d57600080fd5b815161100481610fcf565b634e487b7160e01b600052604160045260246000fd5b60208082526022908201527f4f6e6c792061646d696e2063616e20706572666f726d2074686973206163746960408201526137b760f11b60608201526080019056fea2646970667358221220fb6640dff43f6a011e14a60771a248535cb941900b1b41fcae16b161aa160c4a64736f6c63430008170033","opcodes":"PUSH1 0x80 PUSH1 0x40 MSTORE CALLVALUE DUP1 ISZERO PUSH2 0x10 JUMPI PUSH1 0x0 DUP1 REVERT JUMPDEST POP PUSH1 0x40 MLOAD PUSH2 0x12E1 CODESIZE SUB DUP1 PUSH2 0x12E1 DUP4 CODECOPY DUP2 ADD PUSH1 0x40 DUP2 SWAP1 MSTORE PUSH2 0x2F SWAP2 PUSH2 0x99 JUMP JUMPDEST PUSH1 0x0 DUP1 SLOAD CALLER PUSH1 0x1 PUSH1 0x1 PUSH1 0xA0 SHL SUB NOT SWAP2 DUP3 AND OR DUP3 SSTORE PUSH1 0x1 DUP1 SLOAD DUP3 AND PUSH1 0x1 PUSH1 0x1 PUSH1 0xA0 SHL SUB SWAP7 DUP8 AND OR SWAP1 SSTORE PUSH1 0x2 DUP1 SLOAD DUP3 AND SWAP5 DUP7 AND SWAP5 SWAP1 SWAP5 OR SWAP1 SWAP4 SSTORE PUSH1 0x3 DUP1 SLOAD SWAP1 SWAP4 AND SWAP2 SWAP1 SWAP4 AND OR SWAP1 SSTORE PUSH1 0x8 SSTORE PUSH2 0xDC JUMP JUMPDEST DUP1 MLOAD PUSH1 0x1 PUSH1 0x1 PUSH1 0xA0 SHL SUB DUP2 AND DUP2 EQ PUSH2 0x94 JUMPI PUSH1 0x0 DUP1 REVERT JUMPDEST SWAP2 SWAP1 POP JUMP JUMPDEST PUSH1 0x0 DUP1 PUSH1 0x0 PUSH1 0x60 DUP5 DUP7 SUB SLT ISZERO PUSH2 0xAE JUMPI PUSH1 0x0 DUP1 REVERT JUMPDEST PUSH2 0xB7 DUP5 PUSH2 0x7D JUMP JUMPDEST SWAP3 POP PUSH2 0xC5 PUSH1 0x20 DUP6 ADD PUSH2 0x7D JUMP JUMPDEST SWAP2 POP PUSH2 0xD3 PUSH1 0x40 DUP6 ADD PUSH2 0x7D JUMP JUMPDEST SWAP1 POP SWAP3 POP SWAP3 POP SWAP3 JUMP JUMPDEST PUSH2 0x11F6 DUP1 PUSH2 0xEB PUSH1 0x0 CODECOPY PUSH1 0x0 RETURN INVALID PUSH1 0x80 PUSH1 0x40 MSTORE CALLVALUE DUP1 ISZERO PUSH2 0x10 JUMPI PUSH1 0x0 DUP1 REVERT JUMPDEST POP PUSH1 0x4 CALLDATASIZE LT PUSH2 0xEA JUMPI PUSH1 0x0 CALLDATALOAD PUSH1 0xE0 SHR DUP1 PUSH4 0xB7A3C1DA GT PUSH2 0x8C JUMPI DUP1 PUSH4 0xC7600081 GT PUSH2 0x66 JUMPI DUP1 PUSH4 0xC7600081 EQ PUSH2 0x240 JUMPI DUP1 PUSH4 0xD56D229D EQ PUSH2 0x260 JUMPI DUP1 PUSH4 0xE98C9BFE EQ PUSH2 0x273 JUMPI DUP1 PUSH4 0xF851A440 EQ PUSH2 0x286 JUMPI PUSH1 0x0 DUP1 REVERT JUMPDEST DUP1 PUSH4 0xB7A3C1DA EQ PUSH2 0x203 JUMPI DUP1 PUSH4 0xB9118489 EQ PUSH2 0x21A JUMPI DUP1 PUSH4 0xBF3CB7C7 EQ PUSH2 0x22D JUMPI PUSH1 0x0 DUP1 REVERT JUMPDEST DUP1 PUSH4 0x80A5C80D GT PUSH2 0xC8 JUMPI DUP1 PUSH4 0x80A5C80D EQ PUSH2 0x158 JUMPI DUP1 PUSH4 0x81257BD5 EQ PUSH2 0x17A JUMPI DUP1 PUSH4 0x8A72EA6A EQ PUSH2 0x18D JUMPI DUP1 PUSH4 0x9618B333 EQ PUSH2 0x1E3 JUMPI PUSH1 0x0 DUP1 REVERT JUMPDEST DUP1 PUSH4 0x181DF8C9 EQ PUSH2 0xEF JUMPI DUP1 PUSH4 0x48758697 EQ PUSH2 0x104 JUMPI DUP1 PUSH4 0x76FFB9BD EQ PUSH2 0x12D JUMPI JUMPDEST PUSH1 0x0 DUP1 REVERT JUMPDEST PUSH2 0x102 PUSH2 0xFD CALLDATASIZE PUSH1 0x4 PUSH2 0xEC7 JUMP JUMPDEST PUSH2 0x299 JUMP JUMPDEST STOP JUMPDEST PUSH2 0x117 PUSH2 0x112 CALLDATASIZE PUSH1 0x4 PUSH2 0xEF1 JUMP JUMPDEST PUSH2 0x5DE JUMP JUMPDEST PUSH1 0x40 MLOAD PUSH2 0x124 SWAP2 SWAP1 PUSH2 0xF42 JUMP JUMPDEST PUSH1 0x40 MLOAD DUP1 SWAP2 SUB SWAP1 RETURN JUMPDEST PUSH1 0x2 SLOAD PUSH2 0x140 SWAP1 PUSH1 0x1 PUSH1 0x1 PUSH1 0xA0 SHL SUB AND DUP2 JUMP JUMPDEST PUSH1 0x40 MLOAD PUSH1 0x1 PUSH1 0x1 PUSH1 0xA0 SHL SUB SWAP1 SWAP2 AND DUP2 MSTORE PUSH1 0x20 ADD PUSH2 0x124 JUMP JUMPDEST PUSH2 0x16B PUSH2 0x166 CALLDATASIZE PUSH1 0x4 PUSH2 0xEF1 JUMP JUMPDEST PUSH2 0x6E2 JUMP JUMPDEST PUSH1 0x40 MLOAD PUSH2 0x124 SWAP4 SWAP3 SWAP2 SWAP1 PUSH2 0xF56 JUMP JUMPDEST PUSH2 0x102 PUSH2 0x188 CALLDATASIZE PUSH1 0x4 PUSH2 0xF79 JUMP JUMPDEST PUSH2 0x718 JUMP JUMPDEST PUSH2 0x1D3 PUSH2 0x19B CALLDATASIZE PUSH1 0x4 PUSH2 0xEF1 JUMP JUMPDEST PUSH1 0x4 PUSH1 0x20 MSTORE PUSH1 0x0 SWAP1 DUP2 MSTORE PUSH1 0x40 SWAP1 KECCAK256 DUP1 SLOAD PUSH1 0x1 DUP3 ADD SLOAD PUSH1 0x2 SWAP1 SWAP3 ADD SLOAD PUSH1 0xFF SWAP2 DUP3 AND SWAP3 SWAP2 PUSH1 0x1 PUSH1 0x1 PUSH1 0xA0 SHL SUB DUP3 AND SWAP2 PUSH1 0x1 PUSH1 0xA0 SHL SWAP1 DIV AND DUP5 JUMP JUMPDEST PUSH1 0x40 MLOAD PUSH2 0x124 SWAP5 SWAP4 SWAP3 SWAP2 SWAP1 PUSH2 0xF9B JUMP JUMPDEST PUSH2 0x1F6 PUSH2 0x1F1 CALLDATASIZE PUSH1 0x4 PUSH2 0xFE7 JUMP JUMPDEST PUSH2 0xB33 JUMP JUMPDEST PUSH1 0x40 MLOAD PUSH2 0x124 SWAP2 SWAP1 PUSH2 0x100B JUMP JUMPDEST PUSH2 0x20C PUSH1 0x8 SLOAD DUP2 JUMP JUMPDEST PUSH1 0x40 MLOAD SWAP1 DUP2 MSTORE PUSH1 0x20 ADD PUSH2 0x124 JUMP JUMPDEST PUSH2 0x102 PUSH2 0x228 CALLDATASIZE PUSH1 0x4 PUSH2 0x1081 JUMP JUMPDEST PUSH2 0xCE4 JUMP JUMPDEST PUSH2 0x102 PUSH2 0x23B CALLDATASIZE PUSH1 0x4 PUSH2 0xEC7 JUMP JUMPDEST PUSH2 0xE12 JUMP JUMPDEST PUSH2 0x20C PUSH2 0x24E CALLDATASIZE PUSH1 0x4 PUSH2 0x10B6 JUMP JUMPDEST PUSH1 0x5 PUSH1 0x20 MSTORE PUSH1 0x0 SWAP1 DUP2 MSTORE PUSH1 0x40 SWAP1 KECCAK256 SLOAD DUP2 JUMP JUMPDEST PUSH1 0x1 SLOAD PUSH2 0x140 SWAP1 PUSH1 0x1 PUSH1 0x1 PUSH1 0xA0 SHL SUB AND DUP2 JUMP JUMPDEST PUSH1 0x3 SLOAD PUSH2 0x140 SWAP1 PUSH1 0x1 PUSH1 0x1 PUSH1 0xA0 SHL SUB AND DUP2 JUMP JUMPDEST PUSH1 0x0 SLOAD PUSH2 0x140 SWAP1 PUSH1 0x1 PUSH1 0x1 PUSH1 0xA0 SHL SUB AND DUP2 JUMP JUMPDEST PUSH1 0x0 PUSH1 0x5 PUSH1 0x0 DUP5 PUSH1 0x2 DUP2 GT ISZERO PUSH2 0x2B1 JUMPI PUSH2 0x2B1 PUSH2 0xF0A JUMP JUMPDEST PUSH1 0x2 DUP2 GT ISZERO PUSH2 0x2C2 JUMPI PUSH2 0x2C2 PUSH2 0xF0A JUMP JUMPDEST DUP2 MSTORE PUSH1 0x20 ADD SWAP1 DUP2 MSTORE PUSH1 0x20 ADD PUSH1 0x0 KECCAK256 SLOAD SWAP1 POP PUSH1 0x0 DUP2 GT PUSH2 0x31F JUMPI PUSH1 0x40 MLOAD PUSH3 0x461BCD PUSH1 0xE5 SHL DUP2 MSTORE PUSH1 0x20 PUSH1 0x4 DUP3 ADD MSTORE PUSH1 0x14 PUSH1 0x24 DUP3 ADD MSTORE PUSH20 0x496E76616C696420726172697479207072696365 PUSH1 0x60 SHL PUSH1 0x44 DUP3 ADD MSTORE PUSH1 0x64 ADD JUMPDEST PUSH1 0x40 MLOAD DUP1 SWAP2 SUB SWAP1 REVERT JUMPDEST PUSH1 0x2 SLOAD PUSH1 0x40 MLOAD PUSH4 0x23B872DD PUSH1 0xE0 SHL DUP2 MSTORE CALLER PUSH1 0x4 DUP3 ADD MSTORE ADDRESS PUSH1 0x24 DUP3 ADD MSTORE PUSH1 0x44 DUP2 ADD DUP4 SWAP1 MSTORE PUSH1 0x1 PUSH1 0x1 PUSH1 0xA0 SHL SUB SWAP1 SWAP2 AND SWAP1 PUSH4 0x23B872DD SWAP1 PUSH1 0x64 ADD PUSH1 0x20 PUSH1 0x40 MLOAD DUP1 DUP4 SUB DUP2 PUSH1 0x0 DUP8 GAS CALL ISZERO DUP1 ISZERO PUSH2 0x376 JUMPI RETURNDATASIZE PUSH1 0x0 DUP1 RETURNDATACOPY RETURNDATASIZE PUSH1 0x0 REVERT JUMPDEST POP POP POP POP PUSH1 0x40 MLOAD RETURNDATASIZE PUSH1 0x1F NOT PUSH1 0x1F DUP3 ADD AND DUP3 ADD DUP1 PUSH1 0x40 MSTORE POP DUP2 ADD SWAP1 PUSH2 0x39A SWAP2 SWAP1 PUSH2 0x10D1 JUMP JUMPDEST PUSH2 0x3E0 JUMPI PUSH1 0x40 MLOAD PUSH3 0x461BCD PUSH1 0xE5 SHL DUP2 MSTORE PUSH1 0x20 PUSH1 0x4 DUP3 ADD MSTORE PUSH1 0x17 PUSH1 0x24 DUP3 ADD MSTORE PUSH23 0x11CB551BDAD95B881D1C985B9CD9995C8819985A5B1959 PUSH1 0x4A SHL PUSH1 0x44 DUP3 ADD MSTORE PUSH1 0x64 ADD PUSH2 0x316 JUMP JUMPDEST PUSH1 0x3 SLOAD PUSH1 0x40 MLOAD PUSH4 0x23B872DD PUSH1 0xE0 SHL DUP2 MSTORE CALLER PUSH1 0x4 DUP3 ADD MSTORE ADDRESS PUSH1 0x24 DUP3 ADD MSTORE PUSH1 0x44 DUP2 ADD DUP5 SWAP1 MSTORE PUSH1 0x1 PUSH1 0x1 PUSH1 0xA0 SHL SUB SWAP1 SWAP2 AND SWAP1 PUSH4 0x23B872DD SWAP1 PUSH1 0x64 ADD PUSH1 0x20 PUSH1 0x40 MLOAD DUP1 DUP4 SUB DUP2 PUSH1 0x0 DUP8 GAS CALL ISZERO DUP1 ISZERO PUSH2 0x437 JUMPI RETURNDATASIZE PUSH1 0x0 DUP1 RETURNDATACOPY RETURNDATASIZE PUSH1 0x0 REVERT JUMPDEST POP POP POP POP PUSH1 0x40 MLOAD RETURNDATASIZE PUSH1 0x1F NOT PUSH1 0x1F DUP3 ADD AND DUP3 ADD DUP1 PUSH1 0x40 MSTORE POP DUP2 ADD SWAP1 PUSH2 0x45B SWAP2 SWAP1 PUSH2 0x10D1 JUMP JUMPDEST PUSH2 0x4A3 JUMPI PUSH1 0x40 MLOAD PUSH3 0x461BCD PUSH1 0xE5 SHL DUP2 MSTORE PUSH1 0x20 PUSH1 0x4 DUP3 ADD MSTORE PUSH1 0x19 PUSH1 0x24 DUP3 ADD MSTORE PUSH25 0x155090481D1BDAD95B881D1C985B9CD9995C8819985A5B1959 PUSH1 0x3A SHL PUSH1 0x44 DUP3 ADD MSTORE PUSH1 0x64 ADD PUSH2 0x316 JUMP JUMPDEST PUSH1 0x40 MLOAD DUP1 PUSH1 0x80 ADD PUSH1 0x40 MSTORE DUP1 DUP5 PUSH1 0x2 DUP2 GT ISZERO PUSH2 0x4C0 JUMPI PUSH2 0x4C0 PUSH2 0xF0A JUMP JUMPDEST DUP2 MSTORE PUSH1 0x20 DUP1 DUP3 ADD DUP6 SWAP1 MSTORE CALLER PUSH1 0x40 DUP1 DUP5 ADD SWAP2 SWAP1 SWAP2 MSTORE PUSH1 0x1 PUSH1 0x60 SWAP1 SWAP4 ADD DUP4 SWAP1 MSTORE PUSH1 0x8 SLOAD PUSH1 0x0 SWAP1 DUP2 MSTORE PUSH1 0x4 SWAP1 SWAP3 MSTORE SWAP1 KECCAK256 DUP3 MLOAD DUP2 SLOAD SWAP2 SWAP3 SWAP1 SWAP2 DUP4 SWAP2 PUSH1 0xFF NOT SWAP1 SWAP2 AND SWAP1 DUP4 PUSH1 0x2 DUP2 GT ISZERO PUSH2 0x510 JUMPI PUSH2 0x510 PUSH2 0xF0A JUMP JUMPDEST MUL OR SWAP1 SSTORE POP PUSH1 0x20 DUP3 DUP2 ADD MLOAD PUSH1 0x1 DUP1 DUP5 ADD SWAP2 SWAP1 SWAP2 SSTORE PUSH1 0x40 DUP1 DUP6 ADD MLOAD PUSH1 0x2 SWAP1 SWAP5 ADD DUP1 SLOAD PUSH1 0x60 SWAP1 SWAP7 ADD MLOAD ISZERO ISZERO PUSH1 0x1 PUSH1 0xA0 SHL MUL PUSH1 0x1 PUSH1 0x1 PUSH1 0xA8 SHL SUB NOT SWAP1 SWAP7 AND PUSH1 0x1 PUSH1 0x1 PUSH1 0xA0 SHL SUB SWAP1 SWAP6 AND SWAP5 SWAP1 SWAP5 OR SWAP5 SWAP1 SWAP5 OR SWAP1 SWAP3 SSTORE CALLER PUSH1 0x0 DUP2 DUP2 MSTORE PUSH1 0x6 DUP4 MSTORE DUP5 DUP2 KECCAK256 PUSH1 0x8 DUP1 SLOAD DUP3 SLOAD SWAP7 DUP8 ADD DUP4 SSTORE SWAP2 DUP4 MSTORE SWAP4 SWAP1 SWAP2 KECCAK256 SWAP1 SWAP4 ADD SWAP3 SWAP1 SWAP3 SSTORE SLOAD SWAP2 MLOAD SWAP1 SWAP2 SWAP1 PUSH32 0x99C349ECD9D4C83C06A462C27F5932DB1CE441CDD3F99A3FF978030BB2909B1D SWAP1 PUSH2 0x5BC SWAP1 DUP8 SWAP1 DUP8 SWAP1 PUSH2 0x10F3 JUMP JUMPDEST PUSH1 0x40 MLOAD DUP1 SWAP2 SUB SWAP1 LOG3 PUSH1 0x8 DUP1 SLOAD SWAP1 PUSH1 0x0 PUSH2 0x5D4 DUP4 PUSH2 0x110E JUMP JUMPDEST SWAP2 SWAP1 POP SSTORE POP POP POP POP JUMP JUMPDEST PUSH1 0x0 DUP1 JUMPDEST PUSH1 0x7 SLOAD DUP2 LT ISZERO PUSH2 0x682 JUMPI PUSH1 0x7 DUP2 DUP2 SLOAD DUP2 LT PUSH2 0x5FF JUMPI PUSH2 0x5FF PUSH2 0x1135 JUMP JUMPDEST SWAP1 PUSH1 0x0 MSTORE PUSH1 0x20 PUSH1 0x0 KECCAK256 SWAP1 PUSH1 0x3 MUL ADD PUSH1 0x0 ADD SLOAD DUP4 LT ISZERO DUP1 ISZERO PUSH2 0x644 JUMPI POP PUSH1 0x7 DUP2 DUP2 SLOAD DUP2 LT PUSH2 0x62E JUMPI PUSH2 0x62E PUSH2 0x1135 JUMP JUMPDEST SWAP1 PUSH1 0x0 MSTORE PUSH1 0x20 PUSH1 0x0 KECCAK256 SWAP1 PUSH1 0x3 MUL ADD PUSH1 0x1 ADD SLOAD DUP4 GT ISZERO JUMPDEST ISZERO PUSH2 0x67A JUMPI PUSH1 0x7 DUP2 DUP2 SLOAD DUP2 LT PUSH2 0x65C JUMPI PUSH2 0x65C PUSH2 0x1135 JUMP JUMPDEST PUSH1 0x0 SWAP2 DUP3 MSTORE PUSH1 0x20 SWAP1 SWAP2 KECCAK256 PUSH1 0x2 PUSH1 0x3 SWAP1 SWAP3 MUL ADD ADD SLOAD PUSH1 0xFF AND SWAP4 SWAP3 POP POP POP JUMP JUMPDEST PUSH1 0x1 ADD PUSH2 0x5E2 JUMP JUMPDEST POP PUSH1 0x40 MLOAD PUSH3 0x461BCD PUSH1 0xE5 SHL DUP2 MSTORE PUSH1 0x20 PUSH1 0x4 DUP3 ADD MSTORE PUSH1 0x2E PUSH1 0x24 DUP3 ADD MSTORE PUSH32 0x4E465420494420646F6573206E6F74206D6174636820616E7920646566696E65 PUSH1 0x44 DUP3 ADD MSTORE PUSH14 0x64207261726974792072616E6765 PUSH1 0x90 SHL PUSH1 0x64 DUP3 ADD MSTORE PUSH1 0x84 ADD PUSH2 0x316 JUMP JUMPDEST PUSH1 0x7 DUP2 DUP2 SLOAD DUP2 LT PUSH2 0x6F2 JUMPI PUSH1 0x0 DUP1 REVERT JUMPDEST PUSH1 0x0 SWAP2 DUP3 MSTORE PUSH1 0x20 SWAP1 SWAP2 KECCAK256 PUSH1 0x3 SWAP1 SWAP2 MUL ADD DUP1 SLOAD PUSH1 0x1 DUP3 ADD SLOAD PUSH1 0x2 SWAP1 SWAP3 ADD SLOAD SWAP1 SWAP3 POP PUSH1 0xFF AND DUP4 JUMP JUMPDEST PUSH1 0x1 SLOAD PUSH1 0x40 MLOAD PUSH4 0x31A9108F PUSH1 0xE1 SHL DUP2 MSTORE PUSH1 0x4 DUP2 ADD DUP4 SWAP1 MSTORE DUP3 SWAP2 CALLER SWAP2 PUSH1 0x1 PUSH1 0x1 PUSH1 0xA0 SHL SUB SWAP1 SWAP2 AND SWAP1 PUSH4 0x6352211E SWAP1 PUSH1 0x24 ADD PUSH1 0x20 PUSH1 0x40 MLOAD DUP1 DUP4 SUB DUP2 DUP7 GAS STATICCALL ISZERO DUP1 ISZERO PUSH2 0x765 JUMPI RETURNDATASIZE PUSH1 0x0 DUP1 RETURNDATACOPY RETURNDATASIZE PUSH1 0x0 REVERT JUMPDEST POP POP POP POP PUSH1 0x40 MLOAD RETURNDATASIZE PUSH1 0x1F NOT PUSH1 0x1F DUP3 ADD AND DUP3 ADD DUP1 PUSH1 0x40 MSTORE POP DUP2 ADD SWAP1 PUSH2 0x789 SWAP2 SWAP1 PUSH2 0x114B JUMP JUMPDEST PUSH1 0x1 PUSH1 0x1 PUSH1 0xA0 SHL SUB AND EQ PUSH2 0x7D3 JUMPI PUSH1 0x40 MLOAD PUSH3 0x461BCD PUSH1 0xE5 SHL DUP2 MSTORE PUSH1 0x20 PUSH1 0x4 DUP3 ADD MSTORE PUSH1 0x11 PUSH1 0x24 DUP3 ADD MSTORE PUSH17 0x2737BA103A34329027232A1037BBB732B9 PUSH1 0x79 SHL PUSH1 0x44 DUP3 ADD MSTORE PUSH1 0x64 ADD PUSH2 0x316 JUMP JUMPDEST PUSH1 0x0 DUP4 DUP2 MSTORE PUSH1 0x4 PUSH1 0x20 MSTORE PUSH1 0x40 SWAP1 KECCAK256 PUSH1 0x2 DUP2 ADD SLOAD PUSH1 0x1 PUSH1 0xA0 SHL SWAP1 DIV PUSH1 0xFF AND PUSH2 0x832 JUMPI PUSH1 0x40 MLOAD PUSH3 0x461BCD PUSH1 0xE5 SHL DUP2 MSTORE PUSH1 0x20 PUSH1 0x4 DUP3 ADD MSTORE PUSH1 0x13 PUSH1 0x24 DUP3 ADD MSTORE PUSH19 0x4F66666572206973206E6F7420616374697665 PUSH1 0x68 SHL PUSH1 0x44 DUP3 ADD MSTORE PUSH1 0x64 ADD PUSH2 0x316 JUMP JUMPDEST DUP1 SLOAD PUSH1 0xFF AND PUSH1 0x2 DUP2 GT ISZERO PUSH2 0x848 JUMPI PUSH2 0x848 PUSH2 0xF0A JUMP JUMPDEST PUSH2 0x851 DUP5 PUSH2 0x5DE JUMP JUMPDEST PUSH1 0x2 DUP2 GT ISZERO PUSH2 0x862 JUMPI PUSH2 0x862 PUSH2 0xF0A JUMP JUMPDEST EQ PUSH2 0x8A5 JUMPI PUSH1 0x40 MLOAD PUSH3 0x461BCD PUSH1 0xE5 SHL DUP2 MSTORE PUSH1 0x20 PUSH1 0x4 DUP3 ADD MSTORE PUSH1 0x13 PUSH1 0x24 DUP3 ADD MSTORE PUSH19 0x9C8CA840E4C2E4D2E8F240DAD2E6DAC2E8C6D PUSH1 0x6B SHL PUSH1 0x44 DUP3 ADD MSTORE PUSH1 0x64 ADD PUSH2 0x316 JUMP JUMPDEST PUSH1 0x1 SLOAD PUSH1 0x2 DUP3 ADD SLOAD PUSH1 0x40 MLOAD PUSH4 0x23B872DD PUSH1 0xE0 SHL DUP2 MSTORE CALLER PUSH1 0x4 DUP3 ADD MSTORE PUSH1 0x1 PUSH1 0x1 PUSH1 0xA0 SHL SUB SWAP2 DUP3 AND PUSH1 0x24 DUP3 ADD MSTORE PUSH1 0x44 DUP2 ADD DUP7 SWAP1 MSTORE SWAP2 AND SWAP1 PUSH4 0x23B872DD SWAP1 PUSH1 0x64 ADD PUSH1 0x0 PUSH1 0x40 MLOAD DUP1 DUP4 SUB DUP2 PUSH1 0x0 DUP8 DUP1 EXTCODESIZE ISZERO DUP1 ISZERO PUSH2 0x8FD JUMPI PUSH1 0x0 DUP1 REVERT JUMPDEST POP GAS CALL ISZERO DUP1 ISZERO PUSH2 0x911 JUMPI RETURNDATASIZE PUSH1 0x0 DUP1 RETURNDATACOPY RETURNDATASIZE PUSH1 0x0 REVERT JUMPDEST POP POP PUSH1 0x2 DUP1 SLOAD DUP5 SLOAD PUSH1 0x1 PUSH1 0x1 PUSH1 0xA0 SHL SUB SWAP1 SWAP2 AND SWAP4 POP PUSH4 0xA9059CBB SWAP3 POP CALLER SWAP2 PUSH1 0x5 SWAP2 PUSH1 0x0 SWAP2 PUSH1 0xFF SWAP1 SWAP2 AND SWAP1 DUP2 GT ISZERO PUSH2 0x94A JUMPI PUSH2 0x94A PUSH2 0xF0A JUMP JUMPDEST PUSH1 0x2 DUP2 GT ISZERO PUSH2 0x95B JUMPI PUSH2 0x95B PUSH2 0xF0A JUMP JUMPDEST DUP2 MSTORE PUSH1 0x20 ADD SWAP1 DUP2 MSTORE PUSH1 0x20 ADD PUSH1 0x0 KECCAK256 SLOAD PUSH1 0x40 MLOAD DUP4 PUSH4 0xFFFFFFFF AND PUSH1 0xE0 SHL DUP2 MSTORE PUSH1 0x4 ADD PUSH2 0x99B SWAP3 SWAP2 SWAP1 PUSH1 0x1 PUSH1 0x1 PUSH1 0xA0 SHL SUB SWAP3 SWAP1 SWAP3 AND DUP3 MSTORE PUSH1 0x20 DUP3 ADD MSTORE PUSH1 0x40 ADD SWAP1 JUMP JUMPDEST PUSH1 0x20 PUSH1 0x40 MLOAD DUP1 DUP4 SUB DUP2 PUSH1 0x0 DUP8 GAS CALL ISZERO DUP1 ISZERO PUSH2 0x9BA JUMPI RETURNDATASIZE PUSH1 0x0 DUP1 RETURNDATACOPY RETURNDATASIZE PUSH1 0x0 REVERT JUMPDEST POP POP POP POP PUSH1 0x40 MLOAD RETURNDATASIZE PUSH1 0x1F NOT PUSH1 0x1F DUP3 ADD AND DUP3 ADD DUP1 PUSH1 0x40 MSTORE POP DUP2 ADD SWAP1 PUSH2 0x9DE SWAP2 SWAP1 PUSH2 0x10D1 JUMP JUMPDEST PUSH2 0xA24 JUMPI PUSH1 0x40 MLOAD PUSH3 0x461BCD PUSH1 0xE5 SHL DUP2 MSTORE PUSH1 0x20 PUSH1 0x4 DUP3 ADD MSTORE PUSH1 0x17 PUSH1 0x24 DUP3 ADD MSTORE PUSH23 0x11CB551BDAD95B881D1C985B9CD9995C8819985A5B1959 PUSH1 0x4A SHL PUSH1 0x44 DUP3 ADD MSTORE PUSH1 0x64 ADD PUSH2 0x316 JUMP JUMPDEST PUSH1 0x3 SLOAD PUSH1 0x1 DUP3 ADD SLOAD PUSH1 0x40 MLOAD PUSH4 0xA9059CBB PUSH1 0xE0 SHL DUP2 MSTORE CALLER PUSH1 0x4 DUP3 ADD MSTORE PUSH1 0x24 DUP2 ADD SWAP2 SWAP1 SWAP2 MSTORE PUSH1 0x1 PUSH1 0x1 PUSH1 0xA0 SHL SUB SWAP1 SWAP2 AND SWAP1 PUSH4 0xA9059CBB SWAP1 PUSH1 0x44 ADD PUSH1 0x20 PUSH1 0x40 MLOAD DUP1 DUP4 SUB DUP2 PUSH1 0x0 DUP8 GAS CALL ISZERO DUP1 ISZERO PUSH2 0xA7B JUMPI RETURNDATASIZE PUSH1 0x0 DUP1 RETURNDATACOPY RETURNDATASIZE PUSH1 0x0 REVERT JUMPDEST POP POP POP POP PUSH1 0x40 MLOAD RETURNDATASIZE PUSH1 0x1F NOT PUSH1 0x1F DUP3 ADD AND DUP3 ADD DUP1 PUSH1 0x40 MSTORE POP DUP2 ADD SWAP1 PUSH2 0xA9F SWAP2 SWAP1 PUSH2 0x10D1 JUMP JUMPDEST PUSH2 0xAE7 JUMPI PUSH1 0x40 MLOAD PUSH3 0x461BCD PUSH1 0xE5 SHL DUP2 MSTORE PUSH1 0x20 PUSH1 0x4 DUP3 ADD MSTORE PUSH1 0x19 PUSH1 0x24 DUP3 ADD MSTORE PUSH25 0x155090481D1BDAD95B881D1C985B9CD9995C8819985A5B1959 PUSH1 0x3A SHL PUSH1 0x44 DUP3 ADD MSTORE PUSH1 0x64 ADD PUSH2 0x316 JUMP JUMPDEST PUSH1 0x2 DUP2 ADD DUP1 SLOAD PUSH1 0xFF PUSH1 0xA0 SHL NOT AND SWAP1 SSTORE PUSH1 0x40 MLOAD DUP4 DUP2 MSTORE CALLER SWAP1 DUP6 SWAP1 PUSH32 0xEA555AB99331CEAC5051C58F17CC7B411B30241B0E28CB93A7D3A24C77A7A9A9 SWAP1 PUSH1 0x20 ADD PUSH1 0x40 MLOAD DUP1 SWAP2 SUB SWAP1 LOG3 POP POP POP POP JUMP JUMPDEST PUSH1 0x1 PUSH1 0x1 PUSH1 0xA0 SHL SUB DUP2 AND PUSH1 0x0 SWAP1 DUP2 MSTORE PUSH1 0x6 PUSH1 0x20 SWAP1 DUP2 MSTORE PUSH1 0x40 DUP1 DUP4 KECCAK256 DUP1 SLOAD DUP3 MLOAD DUP2 DUP6 MUL DUP2 ADD DUP6 ADD SWAP1 SWAP4 MSTORE DUP1 DUP4 MSTORE PUSH1 0x60 SWAP5 SWAP4 DUP4 ADD DUP3 DUP3 DUP1 ISZERO PUSH2 0xB92 JUMPI PUSH1 0x20 MUL DUP3 ADD SWAP2 SWAP1 PUSH1 0x0 MSTORE PUSH1 0x20 PUSH1 0x0 KECCAK256 SWAP1 JUMPDEST DUP2 SLOAD DUP2 MSTORE PUSH1 0x20 ADD SWAP1 PUSH1 0x1 ADD SWAP1 DUP1 DUP4 GT PUSH2 0xB7E JUMPI JUMPDEST POP POP POP POP POP SWAP1 POP PUSH1 0x0 DUP2 MLOAD PUSH8 0xFFFFFFFFFFFFFFFF DUP2 GT ISZERO PUSH2 0xBB5 JUMPI PUSH2 0xBB5 PUSH2 0x1168 JUMP JUMPDEST PUSH1 0x40 MLOAD SWAP1 DUP1 DUP3 MSTORE DUP1 PUSH1 0x20 MUL PUSH1 0x20 ADD DUP3 ADD PUSH1 0x40 MSTORE DUP1 ISZERO PUSH2 0xC07 JUMPI DUP2 PUSH1 0x20 ADD JUMPDEST PUSH1 0x40 DUP1 MLOAD PUSH1 0x80 DUP2 ADD DUP3 MSTORE PUSH1 0x0 DUP1 DUP3 MSTORE PUSH1 0x20 DUP1 DUP4 ADD DUP3 SWAP1 MSTORE SWAP3 DUP3 ADD DUP2 SWAP1 MSTORE PUSH1 0x60 DUP3 ADD MSTORE DUP3 MSTORE PUSH1 0x0 NOT SWAP1 SWAP3 ADD SWAP2 ADD DUP2 PUSH2 0xBD3 JUMPI SWAP1 POP JUMPDEST POP SWAP1 POP PUSH1 0x0 JUMPDEST DUP3 MLOAD DUP2 LT ISZERO PUSH2 0xCDC JUMPI PUSH1 0x4 PUSH1 0x0 DUP5 DUP4 DUP2 MLOAD DUP2 LT PUSH2 0xC2C JUMPI PUSH2 0xC2C PUSH2 0x1135 JUMP JUMPDEST PUSH1 0x20 MUL PUSH1 0x20 ADD ADD MLOAD DUP2 MSTORE PUSH1 0x20 ADD SWAP1 DUP2 MSTORE PUSH1 0x20 ADD PUSH1 0x0 KECCAK256 PUSH1 0x40 MLOAD DUP1 PUSH1 0x80 ADD PUSH1 0x40 MSTORE SWAP1 DUP2 PUSH1 0x0 DUP3 ADD PUSH1 0x0 SWAP1 SLOAD SWAP1 PUSH2 0x100 EXP SWAP1 DIV PUSH1 0xFF AND PUSH1 0x2 DUP2 GT ISZERO PUSH2 0xC71 JUMPI PUSH2 0xC71 PUSH2 0xF0A JUMP JUMPDEST PUSH1 0x2 DUP2 GT ISZERO PUSH2 0xC82 JUMPI PUSH2 0xC82 PUSH2 0xF0A JUMP JUMPDEST DUP2 MSTORE PUSH1 0x1 DUP3 ADD SLOAD PUSH1 0x20 DUP3 ADD MSTORE PUSH1 0x2 SWAP1 SWAP2 ADD SLOAD PUSH1 0x1 PUSH1 0x1 PUSH1 0xA0 SHL SUB DUP2 AND PUSH1 0x40 DUP4 ADD MSTORE PUSH1 0x1 PUSH1 0xA0 SHL SWAP1 DIV PUSH1 0xFF AND ISZERO ISZERO PUSH1 0x60 SWAP1 SWAP2 ADD MSTORE DUP3 MLOAD DUP4 SWAP1 DUP4 SWAP1 DUP2 LT PUSH2 0xCC9 JUMPI PUSH2 0xCC9 PUSH2 0x1135 JUMP JUMPDEST PUSH1 0x20 SWAP1 DUP2 MUL SWAP2 SWAP1 SWAP2 ADD ADD MSTORE PUSH1 0x1 ADD PUSH2 0xC0D JUMP JUMPDEST POP SWAP4 SWAP3 POP POP POP JUMP JUMPDEST PUSH1 0x0 SLOAD PUSH1 0x1 PUSH1 0x1 PUSH1 0xA0 SHL SUB AND CALLER EQ PUSH2 0xD0E JUMPI PUSH1 0x40 MLOAD PUSH3 0x461BCD PUSH1 0xE5 SHL DUP2 MSTORE PUSH1 0x4 ADD PUSH2 0x316 SWAP1 PUSH2 0x117E JUMP JUMPDEST DUP2 DUP4 LT PUSH2 0xD4D JUMPI PUSH1 0x40 MLOAD PUSH3 0x461BCD PUSH1 0xE5 SHL DUP2 MSTORE PUSH1 0x20 PUSH1 0x4 DUP3 ADD MSTORE PUSH1 0xD PUSH1 0x24 DUP3 ADD MSTORE PUSH13 0x496E76616C69642072616E6765 PUSH1 0x98 SHL PUSH1 0x44 DUP3 ADD MSTORE PUSH1 0x64 ADD PUSH2 0x316 JUMP JUMPDEST PUSH1 0x7 PUSH1 0x40 MLOAD DUP1 PUSH1 0x60 ADD PUSH1 0x40 MSTORE DUP1 DUP6 DUP2 MSTORE PUSH1 0x20 ADD DUP5 DUP2 MSTORE PUSH1 0x20 ADD DUP4 PUSH1 0x2 DUP2 GT ISZERO PUSH2 0xD78 JUMPI PUSH2 0xD78 PUSH2 0xF0A JUMP JUMPDEST SWAP1 MSTORE DUP2 SLOAD PUSH1 0x1 DUP2 DUP2 ADD DUP5 SSTORE PUSH1 0x0 SWAP4 DUP5 MSTORE PUSH1 0x20 SWAP4 DUP5 SWAP1 KECCAK256 DUP4 MLOAD PUSH1 0x3 SWAP1 SWAP4 MUL ADD SWAP2 DUP3 SSTORE SWAP3 DUP3 ADD MLOAD DUP2 DUP5 ADD SSTORE PUSH1 0x40 DUP3 ADD MLOAD PUSH1 0x2 DUP1 DUP4 ADD DUP1 SLOAD SWAP5 SWAP6 SWAP4 SWAP5 SWAP3 SWAP4 SWAP1 SWAP3 PUSH1 0xFF NOT AND SWAP2 DUP5 SWAP1 DUP2 GT ISZERO PUSH2 0xDCB JUMPI PUSH2 0xDCB PUSH2 0xF0A JUMP JUMPDEST MUL OR SWAP1 SSTORE POP POP POP PUSH32 0x421D9A531B66DE7CABBA051D520CA8CFB2454F69E63C23D90C34541D26C5FCBA DUP4 DUP4 DUP4 PUSH1 0x40 MLOAD PUSH2 0xE05 SWAP4 SWAP3 SWAP2 SWAP1 PUSH2 0xF56 JUMP JUMPDEST PUSH1 0x40 MLOAD DUP1 SWAP2 SUB SWAP1 LOG1 POP POP POP JUMP JUMPDEST PUSH1 0x0 SLOAD PUSH1 0x1 PUSH1 0x1 PUSH1 0xA0 SHL SUB AND CALLER EQ PUSH2 0xE3C JUMPI PUSH1 0x40 MLOAD PUSH3 0x461BCD PUSH1 0xE5 SHL DUP2 MSTORE PUSH1 0x4 ADD PUSH2 0x316 SWAP1 PUSH2 0x117E JUMP JUMPDEST DUP1 PUSH1 0x5 PUSH1 0x0 DUP5 PUSH1 0x2 DUP2 GT ISZERO PUSH2 0xE53 JUMPI PUSH2 0xE53 PUSH2 0xF0A JUMP JUMPDEST PUSH1 0x2 DUP2 GT ISZERO PUSH2 0xE64 JUMPI PUSH2 0xE64 PUSH2 0xF0A JUMP JUMPDEST DUP2 MSTORE PUSH1 0x20 ADD SWAP1 DUP2 MSTORE PUSH1 0x20 ADD PUSH1 0x0 KECCAK256 DUP2 SWAP1 SSTORE POP PUSH32 0x5958AB81D0C68338B40B8844EEEE18551848C9D7519A781CE506F5410F154AB2 DUP3 DUP3 PUSH1 0x40 MLOAD PUSH2 0xEA7 SWAP3 SWAP2 SWAP1 PUSH2 0x10F3 JUMP JUMPDEST PUSH1 0x40 MLOAD DUP1 SWAP2 SUB SWAP1 LOG1 POP POP JUMP JUMPDEST DUP1 CALLDATALOAD PUSH1 0x3 DUP2 LT PUSH2 0xEC2 JUMPI PUSH1 0x0 DUP1 REVERT JUMPDEST SWAP2 SWAP1 POP JUMP JUMPDEST PUSH1 0x0 DUP1 PUSH1 0x40 DUP4 DUP6 SUB SLT ISZERO PUSH2 0xEDA JUMPI PUSH1 0x0 DUP1 REVERT JUMPDEST PUSH2 0xEE3 DUP4 PUSH2 0xEB3 JUMP JUMPDEST SWAP5 PUSH1 0x20 SWAP4 SWAP1 SWAP4 ADD CALLDATALOAD SWAP4 POP POP POP JUMP JUMPDEST PUSH1 0x0 PUSH1 0x20 DUP3 DUP5 SUB SLT ISZERO PUSH2 0xF03 JUMPI PUSH1 0x0 DUP1 REVERT JUMPDEST POP CALLDATALOAD SWAP2 SWAP1 POP JUMP JUMPDEST PUSH4 0x4E487B71 PUSH1 0xE0 SHL PUSH1 0x0 MSTORE PUSH1 0x21 PUSH1 0x4 MSTORE PUSH1 0x24 PUSH1 0x0 REVERT JUMPDEST PUSH1 0x3 DUP2 LT PUSH2 0xF3E JUMPI PUSH4 0x4E487B71 PUSH1 0xE0 SHL PUSH1 0x0 MSTORE PUSH1 0x21 PUSH1 0x4 MSTORE PUSH1 0x24 PUSH1 0x0 REVERT JUMPDEST SWAP1 MSTORE JUMP JUMPDEST PUSH1 0x20 DUP2 ADD PUSH2 0xF50 DUP3 DUP5 PUSH2 0xF20 JUMP JUMPDEST SWAP3 SWAP2 POP POP JUMP JUMPDEST DUP4 DUP2 MSTORE PUSH1 0x20 DUP2 ADD DUP4 SWAP1 MSTORE PUSH1 0x60 DUP2 ADD PUSH2 0xF71 PUSH1 0x40 DUP4 ADD DUP5 PUSH2 0xF20 JUMP JUMPDEST SWAP5 SWAP4 POP POP POP POP JUMP JUMPDEST PUSH1 0x0 DUP1 PUSH1 0x40 DUP4 DUP6 SUB SLT ISZERO PUSH2 0xF8C JUMPI PUSH1 0x0 DUP1 REVERT JUMPDEST POP POP DUP1 CALLDATALOAD SWAP3 PUSH1 0x20 SWAP1 SWAP2 ADD CALLDATALOAD SWAP2 POP JUMP JUMPDEST PUSH1 0x80 DUP2 ADD PUSH2 0xFA9 DUP3 DUP8 PUSH2 0xF20 JUMP JUMPDEST PUSH1 0x20 DUP3 ADD SWAP5 SWAP1 SWAP5 MSTORE PUSH1 0x1 PUSH1 0x1 PUSH1 0xA0 SHL SUB SWAP3 SWAP1 SWAP3 AND PUSH1 0x40 DUP4 ADD MSTORE ISZERO ISZERO PUSH1 0x60 SWAP1 SWAP2 ADD MSTORE SWAP2 SWAP1 POP JUMP JUMPDEST PUSH1 0x1 PUSH1 0x1 PUSH1 0xA0 SHL SUB DUP2 AND DUP2 EQ PUSH2 0xFE4 JUMPI PUSH1 0x0 DUP1 REVERT JUMPDEST POP JUMP JUMPDEST PUSH1 0x0 PUSH1 0x20 DUP3 DUP5 SUB SLT ISZERO PUSH2 0xFF9 JUMPI PUSH1 0x0 DUP1 REVERT JUMPDEST DUP2 CALLDATALOAD PUSH2 0x1004 DUP2 PUSH2 0xFCF JUMP JUMPDEST SWAP4 SWAP3 POP POP POP JUMP JUMPDEST PUSH1 0x20 DUP1 DUP3 MSTORE DUP3 MLOAD DUP3 DUP3 ADD DUP2 SWAP1 MSTORE PUSH1 0x0 SWAP2 SWAP1 PUSH1 0x40 SWAP1 DUP2 DUP6 ADD SWAP1 DUP7 DUP5 ADD DUP6 JUMPDEST DUP3 DUP2 LT ISZERO PUSH2 0x1074 JUMPI DUP2 MLOAD PUSH2 0x103D DUP6 DUP3 MLOAD PUSH2 0xF20 JUMP JUMPDEST DUP1 DUP8 ADD MLOAD DUP6 DUP9 ADD MSTORE DUP6 DUP2 ADD MLOAD PUSH1 0x1 PUSH1 0x1 PUSH1 0xA0 SHL SUB AND DUP7 DUP7 ADD MSTORE PUSH1 0x60 SWAP1 DUP2 ADD MLOAD ISZERO ISZERO SWAP1 DUP6 ADD MSTORE PUSH1 0x80 SWAP1 SWAP4 ADD SWAP3 SWAP1 DUP6 ADD SWAP1 PUSH1 0x1 ADD PUSH2 0x1028 JUMP JUMPDEST POP SWAP2 SWAP8 SWAP7 POP POP POP POP POP POP POP JUMP JUMPDEST PUSH1 0x0 DUP1 PUSH1 0x0 PUSH1 0x60 DUP5 DUP7 SUB SLT ISZERO PUSH2 0x1096 JUMPI PUSH1 0x0 DUP1 REVERT JUMPDEST DUP4 CALLDATALOAD SWAP3 POP PUSH1 0x20 DUP5 ADD CALLDATALOAD SWAP2 POP PUSH2 0x10AD PUSH1 0x40 DUP6 ADD PUSH2 0xEB3 JUMP JUMPDEST SWAP1 POP SWAP3 POP SWAP3 POP SWAP3 JUMP JUMPDEST PUSH1 0x0 PUSH1 0x20 DUP3 DUP5 SUB SLT ISZERO PUSH2 0x10C8 JUMPI PUSH1 0x0 DUP1 REVERT JUMPDEST PUSH2 0x1004 DUP3 PUSH2 0xEB3 JUMP JUMPDEST PUSH1 0x0 PUSH1 0x20 DUP3 DUP5 SUB SLT ISZERO PUSH2 0x10E3 JUMPI PUSH1 0x0 DUP1 REVERT JUMPDEST DUP2 MLOAD DUP1 ISZERO ISZERO DUP2 EQ PUSH2 0x1004 JUMPI PUSH1 0x0 DUP1 REVERT JUMPDEST PUSH1 0x40 DUP2 ADD PUSH2 0x1101 DUP3 DUP6 PUSH2 0xF20 JUMP JUMPDEST DUP3 PUSH1 0x20 DUP4 ADD MSTORE SWAP4 SWAP3 POP POP POP JUMP JUMPDEST PUSH1 0x0 PUSH1 0x1 DUP3 ADD PUSH2 0x112E JUMPI PUSH4 0x4E487B71 PUSH1 0xE0 SHL PUSH1 0x0 MSTORE PUSH1 0x11 PUSH1 0x4 MSTORE PUSH1 0x24 PUSH1 0x0 REVERT JUMPDEST POP PUSH1 0x1 ADD SWAP1 JUMP JUMPDEST PUSH4 0x4E487B71 PUSH1 0xE0 SHL PUSH1 0x0 MSTORE PUSH1 0x32 PUSH1 0x4 MSTORE PUSH1 0x24 PUSH1 0x0 REVERT JUMPDEST PUSH1 0x0 PUSH1 0x20 DUP3 DUP5 SUB SLT ISZERO PUSH2 0x115D JUMPI PUSH1 0x0 DUP1 REVERT JUMPDEST DUP2 MLOAD PUSH2 0x1004 DUP2 PUSH2 0xFCF JUMP JUMPDEST PUSH4 0x4E487B71 PUSH1 0xE0 SHL PUSH1 0x0 MSTORE PUSH1 0x41 PUSH1 0x4 MSTORE PUSH1 0x24 PUSH1 0x0 REVERT JUMPDEST PUSH1 0x20 DUP1 DUP3 MSTORE PUSH1 0x22 SWAP1 DUP3 ADD MSTORE PUSH32 0x4F6E6C792061646D696E2063616E20706572666F726D20746869732061637469 PUSH1 0x40 DUP3 ADD MSTORE PUSH2 0x37B7 PUSH1 0xF1 SHL PUSH1 0x60 DUP3 ADD MSTORE PUSH1 0x80 ADD SWAP1 JUMP INVALID LOG2 PUSH5 0x6970667358 0x22 SLT KECCAK256 0xFB PUSH7 0x40DFF43F6A011E EQ 0xA6 SMOD PUSH18 0xA248535CB941900B1B41FCAE16B161AA160C 0x4A PUSH5 0x736F6C6343 STOP ADDMOD OR STOP CALLER "},"methodIdentifiers":{"acceptOffer(uint256,uint256)":"81257bd5","admin()":"f851a440","createOffer(uint8,uint256)":"181df8c9","gToken()":"76ffb9bd","getOffersByUser(address)":"9618b333","getRarity(uint256)":"48758697","nftContract()":"d56d229d","offerCounter()":"b7a3c1da","offers(uint256)":"8a72ea6a","rarityPrices(uint8)":"c7600081","rarityRanges(uint256)":"80a5c80d","setNFTsRange(uint256,uint256,uint8)":"b9118489","setRarityPrice(uint8,uint256)":"bf3cb7c7","ubaToken()":"e98c9bfe"}},"storageLayout":{"storage":[{"astId":5330,"contract":"contracts/NFTMarketplace.sol:NFTMarketplace","label":"admin","offset":0,"slot":"0","type":"t_address"},{"astId":5333,"contract":"contracts/NFTMarketplace.sol:NFTMarketplace","label":"nftContract","offset":0,"slot":"1","type":"t_contract(IBERA721)5302"},{"astId":5336,"contract":"contracts/NFTMarketplace.sol:NFTMarketplace","label":"gToken","offset":0,"slot":"2","type":"t_contract(IBERA20)5283"},{"astId":5339,"contract":"contracts/NFTMarketplace.sol:NFTMarketplace","label":"ubaToken","offset":0,"slot":"3","type":"t_contract(IBERA20)5283"},{"astId":5344,"contract":"contracts/NFTMarketplace.sol:NFTMarketplace","label":"offers","offset":0,"slot":"4","type":"t_mapping(t_uint256,t_struct(Offer)5320_storage)"},{"astId":5349,"contract":"contracts/NFTMarketplace.sol:NFTMarketplace","label":"rarityPrices","offset":0,"slot":"5","type":"t_mapping(t_enum(Rarity)5310,t_uint256)"},{"astId":5354,"contract":"contracts/NFTMarketplace.sol:NFTMarketplace","label":"userOffers","offset":0,"slot":"6","type":"t_mapping(t_address,t_array(t_uint256)dyn_storage)"},{"astId":5358,"contract":"contracts/NFTMarketplace.sol:NFTMarketplace","label":"rarityRanges","offset":0,"slot":"7","type":"t_array(t_struct(Range)5328_storage)dyn_storage"},{"astId":5360,"contract":"contracts/NFTMarketplace.sol:NFTMarketplace","label":"offerCounter","offset":0,"slot":"8","type":"t_uint256"}],"types":{"t_address":{"encoding":"inplace","label":"address","numberOfBytes":"20"},"t_array(t_struct(Range)5328_storage)dyn_storage":{"base":"t_struct(Range)5328_storage","encoding":"dynamic_array","label":"struct NFTMarketplace.Range[]","numberOfBytes":"32"},"t_array(t_uint256)dyn_storage":{"base":"t_uint256","encoding":"dynamic_array","label":"uint256[]","numberOfBytes":"32"},"t_bool":{"encoding":"inplace","label":"bool","numberOfBytes":"1"},"t_contract(IBERA20)5283":{"encoding":"inplace","label":"contract IBERA20","numberOfBytes":"20"},"t_contract(IBERA721)5302":{"encoding":"inplace","label":"contract IBERA721","numberOfBytes":"20"},"t_enum(Rarity)5310":{"encoding":"inplace","label":"enum NFTMarketplace.Rarity","numberOfBytes":"1"},"t_mapping(t_address,t_array(t_uint256)dyn_storage)":{"encoding":"mapping","key":"t_address","label":"mapping(address => uint256[])","numberOfBytes":"32","value":"t_array(t_uint256)dyn_storage"},"t_mapping(t_enum(Rarity)5310,t_uint256)":{"encoding":"mapping","key":"t_enum(Rarity)5310","label":"mapping(enum NFTMarketplace.Rarity => uint256)","numberOfBytes":"32","value":"t_uint256"},"t_mapping(t_uint256,t_struct(Offer)5320_storage)":{"encoding":"mapping","key":"t_uint256","label":"mapping(uint256 => struct NFTMarketplace.Offer)","numberOfBytes":"32","value":"t_struct(Offer)5320_storage"},"t_struct(Offer)5320_storage":{"encoding":"inplace","label":"struct NFTMarketplace.Offer","members":[{"astId":5313,"contract":"contracts/NFTMarketplace.sol:NFTMarketplace","label":"nftRarity","offset":0,"slot":"0","type":"t_enum(Rarity)5310"},{"astId":5315,"contract":"contracts/NFTMarketplace.sol:NFTMarketplace","label":"bribeAmount","offset":0,"slot":"1","type":"t_uint256"},{"astId":5317,"contract":"contracts/NFTMarketplace.sol:NFTMarketplace","label":"offerCreator","offset":0,"slot":"2","type":"t_address"},{"astId":5319,"contract":"contracts/NFTMarketplace.sol:NFTMarketplace","label":"isActive","offset":20,"slot":"2","type":"t_bool"}],"numberOfBytes":"96"},"t_struct(Range)5328_storage":{"encoding":"inplace","label":"struct NFTMarketplace.Range","members":[{"astId":5322,"contract":"contracts/NFTMarketplace.sol:NFTMarketplace","label":"startId","offset":0,"slot":"0","type":"t_uint256"},{"astId":5324,"contract":"contracts/NFTMarketplace.sol:NFTMarketplace","label":"endId","offset":0,"slot":"1","type":"t_uint256"},{"astId":5327,"contract":"contracts/NFTMarketplace.sol:NFTMarketplace","label":"rarity","offset":0,"slot":"2","type":"t_enum(Rarity)5310"}],"numberOfBytes":"96"},"t_uint256":{"encoding":"inplace","label":"uint256","numberOfBytes":"32"}}}}}}