{
  "_format": "hh-sol-artifact-1",
  "contractName": "NFTMarketplace",
  "sourceName": "test/NFTMarketplace.sol",
  "abi": [
    {
      "inputs": [
        {
          "internalType": "address",
          "name": "_nftContract",
          "type": "address"
        },
        {
          "internalType": "address",
          "name": "_gToken",
          "type": "address"
        },
        {
          "internalType": "address",
          "name": "_ubaToken",
          "type": "address"
        }
      ],
      "stateMutability": "nonpayable",
      "type": "constructor"
    },
    {
      "anonymous": false,
      "inputs": [
        {
          "indexed": true,
          "internalType": "uint256",
          "name": "offerId",
          "type": "uint256"
        },
        {
          "indexed": true,
          "internalType": "address",
          "name": "accepter",
          "type": "address"
        },
        {
          "indexed": false,
          "internalType": "uint256",
          "name": "tokenId",
          "type": "uint256"
        }
      ],
      "name": "OfferAccepted",
      "type": "event"
    },
    {
      "anonymous": false,
      "inputs": [
        {
          "indexed": true,
          "internalType": "uint256",
          "name": "offerId",
          "type": "uint256"
        },
        {
          "indexed": true,
          "internalType": "address",
          "name": "creator",
          "type": "address"
        },
        {
          "indexed": false,
          "internalType": "enum NFTMarketplace.Rarity",
          "name": "nftRarity",
          "type": "uint8"
        },
        {
          "indexed": false,
          "internalType": "uint256",
          "name": "bribeAmount",
          "type": "uint256"
        }
      ],
      "name": "OfferCreated",
      "type": "event"
    },
    {
      "anonymous": false,
      "inputs": [
        {
          "indexed": false,
          "internalType": "enum NFTMarketplace.Rarity",
          "name": "rarity",
          "type": "uint8"
        },
        {
          "indexed": false,
          "internalType": "uint256",
          "name": "price",
          "type": "uint256"
        }
      ],
      "name": "RarityPriceSet",
      "type": "event"
    },
    {
      "anonymous": false,
      "inputs": [
        {
          "indexed": false,
          "internalType": "uint256",
          "name": "startId",
          "type": "uint256"
        },
        {
          "indexed": false,
          "internalType": "uint256",
          "name": "endId",
          "type": "uint256"
        },
        {
          "indexed": false,
          "internalType": "enum NFTMarketplace.Rarity",
          "name": "rarity",
          "type": "uint8"
        }
      ],
      "name": "RarityRangeSet",
      "type": "event"
    },
    {
      "inputs": [
        {
          "internalType": "uint256",
          "name": "offerId",
          "type": "uint256"
        },
        {
          "internalType": "uint256",
          "name": "tokenId",
          "type": "uint256"
        }
      ],
      "name": "acceptOffer",
      "outputs": [],
      "stateMutability": "nonpayable",
      "type": "function"
    },
    {
      "inputs": [],
      "name": "admin",
      "outputs": [
        {
          "internalType": "address",
          "name": "",
          "type": "address"
        }
      ],
      "stateMutability": "view",
      "type": "function"
    },
    {
      "inputs": [
        {
          "internalType": "enum NFTMarketplace.Rarity",
          "name": "_rarity",
          "type": "uint8"
        },
        {
          "internalType": "uint256",
          "name": "_bribeAmount",
          "type": "uint256"
        }
      ],
      "name": "createOffer",
      "outputs": [],
      "stateMutability": "nonpayable",
      "type": "function"
    },
    {
      "inputs": [],
      "name": "gToken",
      "outputs": [
        {
          "internalType": "contract IBERA20",
          "name": "",
          "type": "address"
        }
      ],
      "stateMutability": "view",
      "type": "function"
    },
    {
      "inputs": [
        {
          "internalType": "address",
          "name": "user",
          "type": "address"
        }
      ],
      "name": "getOffersByUser",
      "outputs": [
        {
          "components": [
            {
              "internalType": "enum NFTMarketplace.Rarity",
              "name": "nftRarity",
              "type": "uint8"
            },
            {
              "internalType": "uint256",
              "name": "bribeAmount",
              "type": "uint256"
            },
            {
              "internalType": "address",
              "name": "offerCreator",
              "type": "address"
            },
            {
              "internalType": "bool",
              "name": "isActive",
              "type": "bool"
            }
          ],
          "internalType": "struct NFTMarketplace.Offer[]",
          "name": "",
          "type": "tuple[]"
        }
      ],
      "stateMutability": "view",
      "type": "function"
    },
    {
      "inputs": [
        {
          "internalType": "uint256",
          "name": "tokenId",
          "type": "uint256"
        }
      ],
      "name": "getRarity",
      "outputs": [
        {
          "internalType": "enum NFTMarketplace.Rarity",
          "name": "",
          "type": "uint8"
        }
      ],
      "stateMutability": "view",
      "type": "function"
    },
    {
      "inputs": [],
      "name": "nftContract",
      "outputs": [
        {
          "internalType": "contract IBERA721",
          "name": "",
          "type": "address"
        }
      ],
      "stateMutability": "view",
      "type": "function"
    },
    {
      "inputs": [],
      "name": "offerCounter",
      "outputs": [
        {
          "internalType": "uint256",
          "name": "",
          "type": "uint256"
        }
      ],
      "stateMutability": "view",
      "type": "function"
    },
    {
      "inputs": [
        {
          "internalType": "uint256",
          "name": "",
          "type": "uint256"
        }
      ],
      "name": "offers",
      "outputs": [
        {
          "internalType": "enum NFTMarketplace.Rarity",
          "name": "nftRarity",
          "type": "uint8"
        },
        {
          "internalType": "uint256",
          "name": "bribeAmount",
          "type": "uint256"
        },
        {
          "internalType": "address",
          "name": "offerCreator",
          "type": "address"
        },
        {
          "internalType": "bool",
          "name": "isActive",
          "type": "bool"
        }
      ],
      "stateMutability": "view",
      "type": "function"
    },
    {
      "inputs": [
        {
          "internalType": "enum NFTMarketplace.Rarity",
          "name": "",
          "type": "uint8"
        }
      ],
      "name": "rarityPrices",
      "outputs": [
        {
          "internalType": "uint256",
          "name": "",
          "type": "uint256"
        }
      ],
      "stateMutability": "view",
      "type": "function"
    },
    {
      "inputs": [
        {
          "internalType": "uint256",
          "name": "",
          "type": "uint256"
        }
      ],
      "name": "rarityRanges",
      "outputs": [
        {
          "internalType": "uint256",
          "name": "startId",
          "type": "uint256"
        },
        {
          "internalType": "uint256",
          "name": "endId",
          "type": "uint256"
        },
        {
          "internalType": "enum NFTMarketplace.Rarity",
          "name": "rarity",
          "type": "uint8"
        }
      ],
      "stateMutability": "view",
      "type": "function"
    },
    {
      "inputs": [
        {
          "internalType": "uint256",
          "name": "startId",
          "type": "uint256"
        },
        {
          "internalType": "uint256",
          "name": "endId",
          "type": "uint256"
        },
        {
          "internalType": "enum NFTMarketplace.Rarity",
          "name": "_rarity",
          "type": "uint8"
        }
      ],
      "name": "setNFTsRange",
      "outputs": [],
      "stateMutability": "nonpayable",
      "type": "function"
    },
    {
      "inputs": [
        {
          "internalType": "enum NFTMarketplace.Rarity",
          "name": "_rarity",
          "type": "uint8"
        },
        {
          "internalType": "uint256",
          "name": "_price",
          "type": "uint256"
        }
      ],
      "name": "setRarityPrice",
      "outputs": [],
      "stateMutability": "nonpayable",
      "type": "function"
    },
    {
      "inputs": [],
      "name": "ubaToken",
      "outputs": [
        {
          "internalType": "contract IBERA20",
          "name": "",
          "type": "address"
        }
      ],
      "stateMutability": "view",
      "type": "function"
    }
  ],
  "bytecode": "0x608060405234801561001057600080fd5b506040516112e13803806112e183398101604081905261002f91610099565b60008054336001600160a01b03199182161782556001805482166001600160a01b039687161790556002805482169486169490941790935560038054909316919093161790556008556100dc565b80516001600160a01b038116811461009457600080fd5b919050565b6000806000606084860312156100ae57600080fd5b6100b78461007d565b92506100c56020850161007d565b91506100d36040850161007d565b90509250925092565b6111f6806100eb6000396000f3fe608060405234801561001057600080fd5b50600436106100ea5760003560e01c8063b7a3c1da1161008c578063c760008111610066578063c760008114610240578063d56d229d14610260578063e98c9bfe14610273578063f851a4401461028657600080fd5b8063b7a3c1da14610203578063b91184891461021a578063bf3cb7c71461022d57600080fd5b806380a5c80d116100c857806380a5c80d1461015857806381257bd51461017a5780638a72ea6a1461018d5780639618b333146101e357600080fd5b8063181df8c9146100ef578063487586971461010457806376ffb9bd1461012d575b600080fd5b6101026100fd366004610ec7565b610299565b005b610117610112366004610ef1565b6105de565b6040516101249190610f42565b60405180910390f35b600254610140906001600160a01b031681565b6040516001600160a01b039091168152602001610124565b61016b610166366004610ef1565b6106e2565b60405161012493929190610f56565b610102610188366004610f79565b610718565b6101d361019b366004610ef1565b60046020526000908152604090208054600182015460029092015460ff91821692916001600160a01b03821691600160a01b90041684565b6040516101249493929190610f9b565b6101f66101f1366004610fe7565b610b33565b604051610124919061100b565b61020c60085481565b604051908152602001610124565b610102610228366004611081565b610ce4565b61010261023b366004610ec7565b610e12565b61020c61024e3660046110b6565b60056020526000908152604090205481565b600154610140906001600160a01b031681565b600354610140906001600160a01b031681565b600054610140906001600160a01b031681565b6000600560008460028111156102b1576102b1610f0a565b60028111156102c2576102c2610f0a565b81526020019081526020016000205490506000811161031f5760405162461bcd60e51b8152602060048201526014602482015273496e76616c69642072617269747920707269636560601b60448201526064015b60405180910390fd5b6002546040516323b872dd60e01b8152336004820152306024820152604481018390526001600160a01b03909116906323b872dd906064016020604051808303816000875af1158015610376573d6000803e3d6000fd5b505050506040513d601f19601f8201168201806040525081019061039a91906110d1565b6103e05760405162461bcd60e51b815260206004820152601760248201527611cb551bdad95b881d1c985b9cd9995c8819985a5b1959604a1b6044820152606401610316565b6003546040516323b872dd60e01b8152336004820152306024820152604481018490526001600160a01b03909116906323b872dd906064016020604051808303816000875af1158015610437573d6000803e3d6000fd5b505050506040513d601f19601f8201168201806040525081019061045b91906110d1565b6104a35760405162461bcd60e51b8152602060048201526019602482015278155090481d1bdad95b881d1c985b9cd9995c8819985a5b1959603a1b6044820152606401610316565b60405180608001604052808460028111156104c0576104c0610f0a565b8152602080820185905233604080840191909152600160609093018390526008546000908152600490925290208251815491929091839160ff199091169083600281111561051057610510610f0a565b0217905550602082810151600180840191909155604080850151600290940180546060909601511515600160a01b026001600160a81b03199096166001600160a01b03909516949094179490941790925533600081815260068352848120600880548254968701835591835293909120909301929092555491519091907f99c349ecd9d4c83c06a462c27f5932db1ce441cdd3f99a3ff978030bb2909b1d906105bc90879087906110f3565b60405180910390a3600880549060006105d48361110e565b9190505550505050565b6000805b60075481101561068257600781815481106105ff576105ff611135565b906000526020600020906003020160000154831015801561064457506007818154811061062e5761062e611135565b9060005260206000209060030201600101548311155b1561067a576007818154811061065c5761065c611135565b600091825260209091206002600390920201015460ff169392505050565b6001016105e2565b5060405162461bcd60e51b815260206004820152602e60248201527f4e465420494420646f6573206e6f74206d6174636820616e7920646566696e6560448201526d64207261726974792072616e676560901b6064820152608401610316565b600781815481106106f257600080fd5b600091825260209091206003909102018054600182015460029092015490925060ff1683565b6001546040516331a9108f60e11b815260048101839052829133916001600160a01b0390911690636352211e90602401602060405180830381865afa158015610765573d6000803e3d6000fd5b505050506040513d601f19601f82011682018060405250810190610789919061114b565b6001600160a01b0316146107d35760405162461bcd60e51b81526020600482015260116024820152702737ba103a34329027232a1037bbb732b960791b6044820152606401610316565b60008381526004602052604090206002810154600160a01b900460ff166108325760405162461bcd60e51b81526020600482015260136024820152724f66666572206973206e6f742061637469766560681b6044820152606401610316565b805460ff16600281111561084857610848610f0a565b610851846105de565b600281111561086257610862610f0a565b146108a55760405162461bcd60e51b815260206004820152601360248201527209c8ca840e4c2e4d2e8f240dad2e6dac2e8c6d606b1b6044820152606401610316565b60015460028201546040516323b872dd60e01b81523360048201526001600160a01b039182166024820152604481018690529116906323b872dd90606401600060405180830381600087803b1580156108fd57600080fd5b505af1158015610911573d6000803e3d6000fd5b50506002805484546001600160a01b03909116935063a9059cbb9250339160059160009160ff9091169081111561094a5761094a610f0a565b600281111561095b5761095b610f0a565b8152602001908152602001600020546040518363ffffffff1660e01b815260040161099b9291906001600160a01b03929092168252602082015260400190565b6020604051808303816000875af11580156109ba573d6000803e3d6000fd5b505050506040513d601f19601f820116820180604052508101906109de91906110d1565b610a245760405162461bcd60e51b815260206004820152601760248201527611cb551bdad95b881d1c985b9cd9995c8819985a5b1959604a1b6044820152606401610316565b600354600182015460405163a9059cbb60e01b815233600482015260248101919091526001600160a01b039091169063a9059cbb906044016020604051808303816000875af1158015610a7b573d6000803e3d6000fd5b505050506040513d601f19601f82011682018060405250810190610a9f91906110d1565b610ae75760405162461bcd60e51b8152602060048201526019602482015278155090481d1bdad95b881d1c985b9cd9995c8819985a5b1959603a1b6044820152606401610316565b60028101805460ff60a01b19169055604051838152339085907fea555ab99331ceac5051c58f17cc7b411b30241b0e28cb93a7d3a24c77a7a9a99060200160405180910390a350505050565b6001600160a01b0381166000908152600660209081526040808320805482518185028101850190935280835260609493830182828015610b9257602002820191906000526020600020905b815481526020019060010190808311610b7e575b505050505090506000815167ffffffffffffffff811115610bb557610bb5611168565b604051908082528060200260200182016040528015610c0757816020015b604080516080810182526000808252602080830182905292820181905260608201528252600019909201910181610bd35790505b50905060005b8251811015610cdc5760046000848381518110610c2c57610c2c611135565b602002602001015181526020019081526020016000206040518060800160405290816000820160009054906101000a900460ff166002811115610c7157610c71610f0a565b6002811115610c8257610c82610f0a565b8152600182015460208201526002909101546001600160a01b0381166040830152600160a01b900460ff1615156060909101528251839083908110610cc957610cc9611135565b6020908102919091010152600101610c0d565b509392505050565b6000546001600160a01b03163314610d0e5760405162461bcd60e51b81526004016103169061117e565b818310610d4d5760405162461bcd60e51b815260206004820152600d60248201526c496e76616c69642072616e676560981b6044820152606401610316565b60076040518060600160405280858152602001848152602001836002811115610d7857610d78610f0a565b9052815460018181018455600093845260209384902083516003909302019182559282015181840155604082015160028083018054949593949293909260ff1916918490811115610dcb57610dcb610f0a565b021790555050507f421d9a531b66de7cabba051d520ca8cfb2454f69e63c23d90c34541d26c5fcba838383604051610e0593929190610f56565b60405180910390a1505050565b6000546001600160a01b03163314610e3c5760405162461bcd60e51b81526004016103169061117e565b8060056000846002811115610e5357610e53610f0a565b6002811115610e6457610e64610f0a565b8152602001908152602001600020819055507f5958ab81d0c68338b40b8844eeee18551848c9d7519a781ce506f5410f154ab28282604051610ea79291906110f3565b60405180910390a15050565b803560038110610ec257600080fd5b919050565b60008060408385031215610eda57600080fd5b610ee383610eb3565b946020939093013593505050565b600060208284031215610f0357600080fd5b5035919050565b634e487b7160e01b600052602160045260246000fd5b60038110610f3e57634e487b7160e01b600052602160045260246000fd5b9052565b60208101610f508284610f20565b92915050565b8381526020810183905260608101610f716040830184610f20565b949350505050565b60008060408385031215610f8c57600080fd5b50508035926020909101359150565b60808101610fa98287610f20565b60208201949094526001600160a01b039290921660408301521515606090910152919050565b6001600160a01b0381168114610fe457600080fd5b50565b600060208284031215610ff957600080fd5b813561100481610fcf565b9392505050565b602080825282518282018190526000919060409081850190868401855b8281101561107457815161103d858251610f20565b8087015185880152858101516001600160a01b03168686015260609081015115159085015260809093019290850190600101611028565b5091979650505050505050565b60008060006060848603121561109657600080fd5b83359250602084013591506110ad60408501610eb3565b90509250925092565b6000602082840312156110c857600080fd5b61100482610eb3565b6000602082840312156110e357600080fd5b8151801515811461100457600080fd5b604081016111018285610f20565b8260208301529392505050565b60006001820161112e57634e487b7160e01b600052601160045260246000fd5b5060010190565b634e487b7160e01b600052603260045260246000fd5b60006020828403121561115d57600080fd5b815161100481610fcf565b634e487b7160e01b600052604160045260246000fd5b60208082526022908201527f4f6e6c792061646d696e2063616e20706572666f726d2074686973206163746960408201526137b760f11b60608201526080019056fea2646970667358221220992e50bd67fa233ec6b959d11e5f6514c69b3da0bb7010727adbd7626ac04a2664736f6c63430008170033",
  "linkReferences": {},
  "deployedLinkReferences": {}
}