{
  "_format": "hh-sol-artifact-1",
  "contractName": "GToken",
  "sourceName": "test/GToken.sol",
  "abi": [
    {
      "inputs": [
        {
          "internalType": "address",
          "name": "defaultAdmin",
          "type": "address"
        },
        {
          "internalType": "address",
          "name": "_UBA",
          "type": "address"
        },
        {
          "internalType": "address",
          "name": "_factory",
          "type": "address"
        },
        {
          "internalType": "string",
          "name": "name",
          "type": "string"
        },
        {
          "internalType": "string",
          "name": "symbol",
          "type": "string"
        }
      ],
      "stateMutability": "nonpayable",
      "type": "constructor"
    },
    {
      "inputs": [],
      "name": "AccessControlBadConfirmation",
      "type": "error"
    },
    {
      "inputs": [
        {
          "internalType": "address",
          "name": "account",
          "type": "address"
        },
        {
          "internalType": "bytes32",
          "name": "neededRole",
          "type": "bytes32"
        }
      ],
      "name": "AccessControlUnauthorizedAccount",
      "type": "error"
    },
    {
      "inputs": [],
      "name": "ECDSAInvalidSignature",
      "type": "error"
    },
    {
      "inputs": [
        {
          "internalType": "uint256",
          "name": "length",
          "type": "uint256"
        }
      ],
      "name": "ECDSAInvalidSignatureLength",
      "type": "error"
    },
    {
      "inputs": [
        {
          "internalType": "bytes32",
          "name": "s",
          "type": "bytes32"
        }
      ],
      "name": "ECDSAInvalidSignatureS",
      "type": "error"
    },
    {
      "inputs": [
        {
          "internalType": "address",
          "name": "spender",
          "type": "address"
        },
        {
          "internalType": "uint256",
          "name": "allowance",
          "type": "uint256"
        },
        {
          "internalType": "uint256",
          "name": "needed",
          "type": "uint256"
        }
      ],
      "name": "ERC20InsufficientAllowance",
      "type": "error"
    },
    {
      "inputs": [
        {
          "internalType": "address",
          "name": "sender",
          "type": "address"
        },
        {
          "internalType": "uint256",
          "name": "balance",
          "type": "uint256"
        },
        {
          "internalType": "uint256",
          "name": "needed",
          "type": "uint256"
        }
      ],
      "name": "ERC20InsufficientBalance",
      "type": "error"
    },
    {
      "inputs": [
        {
          "internalType": "address",
          "name": "approver",
          "type": "address"
        }
      ],
      "name": "ERC20InvalidApprover",
      "type": "error"
    },
    {
      "inputs": [
        {
          "internalType": "address",
          "name": "receiver",
          "type": "address"
        }
      ],
      "name": "ERC20InvalidReceiver",
      "type": "error"
    },
    {
      "inputs": [
        {
          "internalType": "address",
          "name": "sender",
          "type": "address"
        }
      ],
      "name": "ERC20InvalidSender",
      "type": "error"
    },
    {
      "inputs": [
        {
          "internalType": "address",
          "name": "spender",
          "type": "address"
        }
      ],
      "name": "ERC20InvalidSpender",
      "type": "error"
    },
    {
      "inputs": [
        {
          "internalType": "uint256",
          "name": "deadline",
          "type": "uint256"
        }
      ],
      "name": "ERC2612ExpiredSignature",
      "type": "error"
    },
    {
      "inputs": [
        {
          "internalType": "address",
          "name": "signer",
          "type": "address"
        },
        {
          "internalType": "address",
          "name": "owner",
          "type": "address"
        }
      ],
      "name": "ERC2612InvalidSigner",
      "type": "error"
    },
    {
      "inputs": [
        {
          "internalType": "address",
          "name": "account",
          "type": "address"
        },
        {
          "internalType": "uint256",
          "name": "currentNonce",
          "type": "uint256"
        }
      ],
      "name": "InvalidAccountNonce",
      "type": "error"
    },
    {
      "inputs": [],
      "name": "InvalidShortString",
      "type": "error"
    },
    {
      "inputs": [
        {
          "internalType": "string",
          "name": "str",
          "type": "string"
        }
      ],
      "name": "StringTooLong",
      "type": "error"
    },
    {
      "anonymous": false,
      "inputs": [
        {
          "indexed": true,
          "internalType": "address",
          "name": "owner",
          "type": "address"
        },
        {
          "indexed": true,
          "internalType": "address",
          "name": "spender",
          "type": "address"
        },
        {
          "indexed": false,
          "internalType": "uint256",
          "name": "value",
          "type": "uint256"
        }
      ],
      "name": "Approval",
      "type": "event"
    },
    {
      "anonymous": false,
      "inputs": [],
      "name": "EIP712DomainChanged",
      "type": "event"
    },
    {
      "anonymous": false,
      "inputs": [
        {
          "indexed": true,
          "internalType": "bytes32",
          "name": "role",
          "type": "bytes32"
        },
        {
          "indexed": true,
          "internalType": "bytes32",
          "name": "previousAdminRole",
          "type": "bytes32"
        },
        {
          "indexed": true,
          "internalType": "bytes32",
          "name": "newAdminRole",
          "type": "bytes32"
        }
      ],
      "name": "RoleAdminChanged",
      "type": "event"
    },
    {
      "anonymous": false,
      "inputs": [
        {
          "indexed": true,
          "internalType": "bytes32",
          "name": "role",
          "type": "bytes32"
        },
        {
          "indexed": true,
          "internalType": "address",
          "name": "account",
          "type": "address"
        },
        {
          "indexed": true,
          "internalType": "address",
          "name": "sender",
          "type": "address"
        }
      ],
      "name": "RoleGranted",
      "type": "event"
    },
    {
      "anonymous": false,
      "inputs": [
        {
          "indexed": true,
          "internalType": "bytes32",
          "name": "role",
          "type": "bytes32"
        },
        {
          "indexed": true,
          "internalType": "address",
          "name": "account",
          "type": "address"
        },
        {
          "indexed": true,
          "internalType": "address",
          "name": "sender",
          "type": "address"
        }
      ],
      "name": "RoleRevoked",
      "type": "event"
    },
    {
      "anonymous": false,
      "inputs": [
        {
          "indexed": true,
          "internalType": "address",
          "name": "from",
          "type": "address"
        },
        {
          "indexed": true,
          "internalType": "address",
          "name": "to",
          "type": "address"
        },
        {
          "indexed": false,
          "internalType": "uint256",
          "name": "value",
          "type": "uint256"
        }
      ],
      "name": "Transfer",
      "type": "event"
    },
    {
      "inputs": [],
      "name": "DEFAULT_ADMIN_ROLE",
      "outputs": [
        {
          "internalType": "bytes32",
          "name": "",
          "type": "bytes32"
        }
      ],
      "stateMutability": "view",
      "type": "function"
    },
    {
      "inputs": [],
      "name": "DOMAIN_SEPARATOR",
      "outputs": [
        {
          "internalType": "bytes32",
          "name": "",
          "type": "bytes32"
        }
      ],
      "stateMutability": "view",
      "type": "function"
    },
    {
      "inputs": [],
      "name": "UBA",
      "outputs": [
        {
          "internalType": "contract IERC20",
          "name": "",
          "type": "address"
        }
      ],
      "stateMutability": "view",
      "type": "function"
    },
    {
      "inputs": [
        {
          "internalType": "address",
          "name": "owner",
          "type": "address"
        },
        {
          "internalType": "address",
          "name": "spender",
          "type": "address"
        }
      ],
      "name": "allowance",
      "outputs": [
        {
          "internalType": "uint256",
          "name": "",
          "type": "uint256"
        }
      ],
      "stateMutability": "view",
      "type": "function"
    },
    {
      "inputs": [
        {
          "internalType": "address",
          "name": "spender",
          "type": "address"
        },
        {
          "internalType": "uint256",
          "name": "value",
          "type": "uint256"
        }
      ],
      "name": "approve",
      "outputs": [
        {
          "internalType": "bool",
          "name": "",
          "type": "bool"
        }
      ],
      "stateMutability": "nonpayable",
      "type": "function"
    },
    {
      "inputs": [
        {
          "internalType": "address",
          "name": "account",
          "type": "address"
        }
      ],
      "name": "balanceOf",
      "outputs": [
        {
          "internalType": "uint256",
          "name": "",
          "type": "uint256"
        }
      ],
      "stateMutability": "view",
      "type": "function"
    },
    {
      "inputs": [
        {
          "internalType": "address",
          "name": "_user",
          "type": "address"
        }
      ],
      "name": "claimUBA",
      "outputs": [],
      "stateMutability": "nonpayable",
      "type": "function"
    },
    {
      "inputs": [],
      "name": "decimals",
      "outputs": [
        {
          "internalType": "uint8",
          "name": "",
          "type": "uint8"
        }
      ],
      "stateMutability": "view",
      "type": "function"
    },
    {
      "inputs": [],
      "name": "eip712Domain",
      "outputs": [
        {
          "internalType": "bytes1",
          "name": "fields",
          "type": "bytes1"
        },
        {
          "internalType": "string",
          "name": "name",
          "type": "string"
        },
        {
          "internalType": "string",
          "name": "version",
          "type": "string"
        },
        {
          "internalType": "uint256",
          "name": "chainId",
          "type": "uint256"
        },
        {
          "internalType": "address",
          "name": "verifyingContract",
          "type": "address"
        },
        {
          "internalType": "bytes32",
          "name": "salt",
          "type": "bytes32"
        },
        {
          "internalType": "uint256[]",
          "name": "extensions",
          "type": "uint256[]"
        }
      ],
      "stateMutability": "view",
      "type": "function"
    },
    {
      "inputs": [],
      "name": "factory",
      "outputs": [
        {
          "internalType": "address",
          "name": "",
          "type": "address"
        }
      ],
      "stateMutability": "view",
      "type": "function"
    },
    {
      "inputs": [
        {
          "internalType": "bytes32",
          "name": "role",
          "type": "bytes32"
        }
      ],
      "name": "getRoleAdmin",
      "outputs": [
        {
          "internalType": "bytes32",
          "name": "",
          "type": "bytes32"
        }
      ],
      "stateMutability": "view",
      "type": "function"
    },
    {
      "inputs": [
        {
          "internalType": "bytes32",
          "name": "role",
          "type": "bytes32"
        },
        {
          "internalType": "address",
          "name": "account",
          "type": "address"
        }
      ],
      "name": "grantRole",
      "outputs": [],
      "stateMutability": "nonpayable",
      "type": "function"
    },
    {
      "inputs": [
        {
          "internalType": "bytes32",
          "name": "role",
          "type": "bytes32"
        },
        {
          "internalType": "address",
          "name": "account",
          "type": "address"
        }
      ],
      "name": "hasRole",
      "outputs": [
        {
          "internalType": "bool",
          "name": "",
          "type": "bool"
        }
      ],
      "stateMutability": "view",
      "type": "function"
    },
    {
      "inputs": [
        {
          "internalType": "address",
          "name": "",
          "type": "address"
        }
      ],
      "name": "isWhitelistAddress",
      "outputs": [
        {
          "internalType": "bool",
          "name": "",
          "type": "bool"
        }
      ],
      "stateMutability": "view",
      "type": "function"
    },
    {
      "inputs": [
        {
          "internalType": "address",
          "name": "to",
          "type": "address"
        },
        {
          "internalType": "uint256",
          "name": "amount",
          "type": "uint256"
        }
      ],
      "name": "mint",
      "outputs": [],
      "stateMutability": "nonpayable",
      "type": "function"
    },
    {
      "inputs": [],
      "name": "name",
      "outputs": [
        {
          "internalType": "string",
          "name": "",
          "type": "string"
        }
      ],
      "stateMutability": "view",
      "type": "function"
    },
    {
      "inputs": [
        {
          "internalType": "address",
          "name": "owner",
          "type": "address"
        }
      ],
      "name": "nonces",
      "outputs": [
        {
          "internalType": "uint256",
          "name": "",
          "type": "uint256"
        }
      ],
      "stateMutability": "view",
      "type": "function"
    },
    {
      "inputs": [
        {
          "internalType": "address",
          "name": "_user",
          "type": "address"
        }
      ],
      "name": "pendingUBA",
      "outputs": [
        {
          "internalType": "uint256",
          "name": "",
          "type": "uint256"
        }
      ],
      "stateMutability": "view",
      "type": "function"
    },
    {
      "inputs": [
        {
          "internalType": "address",
          "name": "owner",
          "type": "address"
        },
        {
          "internalType": "address",
          "name": "spender",
          "type": "address"
        },
        {
          "internalType": "uint256",
          "name": "value",
          "type": "uint256"
        },
        {
          "internalType": "uint256",
          "name": "deadline",
          "type": "uint256"
        },
        {
          "internalType": "uint8",
          "name": "v",
          "type": "uint8"
        },
        {
          "internalType": "bytes32",
          "name": "r",
          "type": "bytes32"
        },
        {
          "internalType": "bytes32",
          "name": "s",
          "type": "bytes32"
        }
      ],
      "name": "permit",
      "outputs": [],
      "stateMutability": "nonpayable",
      "type": "function"
    },
    {
      "inputs": [],
      "name": "poolInfo",
      "outputs": [
        {
          "internalType": "contract IERC20",
          "name": "ubaToken",
          "type": "address"
        },
        {
          "internalType": "uint256",
          "name": "accUBAPerShare",
          "type": "uint256"
        },
        {
          "internalType": "uint256",
          "name": "lastTotalUBAReward",
          "type": "uint256"
        },
        {
          "internalType": "uint256",
          "name": "lastUBARewardBalance",
          "type": "uint256"
        },
        {
          "internalType": "uint256",
          "name": "totalUBAReward",
          "type": "uint256"
        }
      ],
      "stateMutability": "view",
      "type": "function"
    },
    {
      "inputs": [
        {
          "internalType": "bytes32",
          "name": "role",
          "type": "bytes32"
        },
        {
          "internalType": "address",
          "name": "callerConfirmation",
          "type": "address"
        }
      ],
      "name": "renounceRole",
      "outputs": [],
      "stateMutability": "nonpayable",
      "type": "function"
    },
    {
      "inputs": [
        {
          "internalType": "bytes32",
          "name": "role",
          "type": "bytes32"
        },
        {
          "internalType": "address",
          "name": "account",
          "type": "address"
        }
      ],
      "name": "revokeRole",
      "outputs": [],
      "stateMutability": "nonpayable",
      "type": "function"
    },
    {
      "inputs": [
        {
          "internalType": "bytes4",
          "name": "interfaceId",
          "type": "bytes4"
        }
      ],
      "name": "supportsInterface",
      "outputs": [
        {
          "internalType": "bool",
          "name": "",
          "type": "bool"
        }
      ],
      "stateMutability": "view",
      "type": "function"
    },
    {
      "inputs": [],
      "name": "symbol",
      "outputs": [
        {
          "internalType": "string",
          "name": "",
          "type": "string"
        }
      ],
      "stateMutability": "view",
      "type": "function"
    },
    {
      "inputs": [],
      "name": "totalSupply",
      "outputs": [
        {
          "internalType": "uint256",
          "name": "",
          "type": "uint256"
        }
      ],
      "stateMutability": "view",
      "type": "function"
    },
    {
      "inputs": [
        {
          "internalType": "address",
          "name": "to",
          "type": "address"
        },
        {
          "internalType": "uint256",
          "name": "value",
          "type": "uint256"
        }
      ],
      "name": "transfer",
      "outputs": [
        {
          "internalType": "bool",
          "name": "",
          "type": "bool"
        }
      ],
      "stateMutability": "nonpayable",
      "type": "function"
    },
    {
      "inputs": [
        {
          "internalType": "address",
          "name": "from",
          "type": "address"
        },
        {
          "internalType": "address",
          "name": "to",
          "type": "address"
        },
        {
          "internalType": "uint256",
          "name": "value",
          "type": "uint256"
        }
      ],
      "name": "transferFrom",
      "outputs": [
        {
          "internalType": "bool",
          "name": "",
          "type": "bool"
        }
      ],
      "stateMutability": "nonpayable",
      "type": "function"
    },
    {
      "inputs": [
        {
          "internalType": "address",
          "name": "_factory",
          "type": "address"
        }
      ],
      "name": "updateFactoryAddress",
      "outputs": [],
      "stateMutability": "nonpayable",
      "type": "function"
    },
    {
      "inputs": [
        {
          "internalType": "address",
          "name": "",
          "type": "address"
        }
      ],
      "name": "userInfo",
      "outputs": [
        {
          "internalType": "uint256",
          "name": "amount",
          "type": "uint256"
        },
        {
          "internalType": "uint256",
          "name": "rewardUBADebt",
          "type": "uint256"
        }
      ],
      "stateMutability": "view",
      "type": "function"
    },
    {
      "inputs": [
        {
          "internalType": "address",
          "name": "account",
          "type": "address"
        },
        {
          "internalType": "bool",
          "name": "status",
          "type": "bool"
        }
      ],
      "name": "whitelistAddress",
      "outputs": [],
      "stateMutability": "nonpayable",
      "type": "function"
    }
  ],
  "bytecode": "0x6101606040523480156200001257600080fd5b506040516200262e3803806200262e8339810160408190526200003591620003dc565b6040805180820190915260018152603160f81b6020820152819081908482600362000061838262000510565b50600462000070828262000510565b506200008291508390506006620001bb565b6101205262000093816007620001bb565b61014052815160208084019190912060e052815190820120610100524660a0526200012160e05161010051604080517f8b73c3c69bb8fe3d512ecc4cf759cc79239f7b179b0ffacaa9a75d522b39400f60208201529081019290925260608201524660808201523060a082015260009060c00160405160208183030381529060405280519060200120905090565b60805250503060c0525062000138600086620001f4565b5050600a80546001600160a01b039485166001600160a01b03199182168117909255601180549490951693811693909317909355506040805160a08101825283815260006020820181905291810182905260608101829052608001819052600b80549092169092179055600c819055600d819055600e819055600f555062000636565b6000602083511015620001db57620001d383620002a6565b9050620001ee565b81620001e8848262000510565b5060ff90505b92915050565b60008281526005602090815260408083206001600160a01b038516845290915281205460ff166200029d5760008381526005602090815260408083206001600160a01b03861684529091529020805460ff19166001179055620002543390565b6001600160a01b0316826001600160a01b0316847f2f8788117e7eff1d82e926ec794901d17c78024a50270940304540a733656f0d60405160405180910390a4506001620001ee565b506000620001ee565b600080829050601f81511115620002dd578260405163305a27a960e01b8152600401620002d49190620005dc565b60405180910390fd5b8051620002ea8262000611565b179392505050565b80516001600160a01b03811681146200030a57600080fd5b919050565b634e487b7160e01b600052604160045260246000fd5b60005b838110156200034257818101518382015260200162000328565b50506000910152565b600082601f8301126200035d57600080fd5b81516001600160401b03808211156200037a576200037a6200030f565b604051601f8301601f19908116603f01168101908282118183101715620003a557620003a56200030f565b81604052838152866020858801011115620003bf57600080fd5b620003d284602083016020890162000325565b9695505050505050565b600080600080600060a08688031215620003f557600080fd5b6200040086620002f2565b94506200041060208701620002f2565b93506200042060408701620002f2565b60608701519093506001600160401b03808211156200043e57600080fd5b6200044c89838a016200034b565b935060808801519150808211156200046357600080fd5b5062000472888289016200034b565b9150509295509295909350565b600181811c908216806200049457607f821691505b602082108103620004b557634e487b7160e01b600052602260045260246000fd5b50919050565b601f8211156200050b576000816000526020600020601f850160051c81016020861015620004e65750805b601f850160051c820191505b818110156200050757828155600101620004f2565b5050505b505050565b81516001600160401b038111156200052c576200052c6200030f565b62000544816200053d84546200047f565b84620004bb565b602080601f8311600181146200057c5760008415620005635750858301515b600019600386901b1c1916600185901b17855562000507565b600085815260208120601f198616915b82811015620005ad578886015182559484019460019091019084016200058c565b5085821015620005cc5787850151600019600388901b60f8161c191681555b5050505050600190811b01905550565b6020815260008251806020840152620005fd81604085016020870162000325565b601f01601f19169190910160400192915050565b80516020808301519190811015620004b55760001960209190910360031b1b16919050565b60805160a05160c05160e051610100516101205161014051611f9d62000691600039600061101501526000610fe801526000610ee901526000610ec101526000610e1c01526000610e4601526000610e700152611f9d6000f3fe608060405234801561001057600080fd5b50600436106101da5760003560e01c806370a0823111610104578063a9059cbb116100a2578063d505accf11610071578063d505accf14610471578063d547741f14610484578063d7aed24514610497578063dd62ed3e146104ba57600080fd5b8063a9059cbb14610425578063b4875ec214610438578063b9a45aac1461044b578063c45a01551461045e57600080fd5b80638fabebfb116100de5780638fabebfb146103ef57806391d148541461040257806395d89b4114610415578063a217fddf1461041d57600080fd5b806370a08231146103985780637ecebe00146103c157806384b0196e146103d457600080fd5b80632f2ff15d1161017c57806340c10f191161014b57806340c10f19146102f2578063551ee5701461030557806356c5ccf1146103185780635a2f3d091461034357600080fd5b80632f2ff15d146102b3578063313ce567146102c85780633644e515146102d757806336568abe146102df57600080fd5b806318160ddd116101b857806318160ddd1461022f5780631959a0021461024157806323b872dd1461027d578063248a9ca31461029057600080fd5b806301ffc9a7146101df57806306fdde0314610207578063095ea7b31461021c575b600080fd5b6101f26101ed366004611b85565b6104f3565b60405190151581526020015b60405180910390f35b61020f61052a565b6040516101fe9190611bfc565b6101f261022a366004611c2b565b6105bc565b6002545b6040519081526020016101fe565b61026861024f366004611c55565b6010602052600090815260409020805460019091015482565b604080519283526020830191909152016101fe565b6101f261028b366004611c70565b6105d4565b61023361029e366004611cac565b60009081526005602052604090206001015490565b6102c66102c1366004611cc5565b6105f8565b005b604051601281526020016101fe565b610233610623565b6102c66102ed366004611cc5565b610632565b6102c6610300366004611c2b565b61066a565b6102c6610313366004611c55565b610726565b600a5461032b906001600160a01b031681565b6040516001600160a01b0390911681526020016101fe565b600b54600c54600d54600e54600f54610366946001600160a01b03169392919085565b604080516001600160a01b0390961686526020860194909452928401919091526060830152608082015260a0016101fe565b6102336103a6366004611c55565b6001600160a01b031660009081526020819052604090205490565b6102336103cf366004611c55565b610754565b6103dc610772565b6040516101fe9796959493929190611cf1565b6102c66103fd366004611c55565b6107b8565b6101f2610410366004611cc5565b610929565b61020f610954565b610233600081565b6101f2610433366004611c2b565b610963565b610233610446366004611c55565b610971565b6102c6610459366004611d98565b610a84565b60115461032b906001600160a01b031681565b6102c661047f366004611dcf565b610b2b565b6102c6610492366004611cc5565b610c65565b6101f26104a5366004611c55565b60096020526000908152604090205460ff1681565b6102336104c8366004611e42565b6001600160a01b03918216600090815260016020908152604080832093909416825291909152205490565b60006001600160e01b03198216637965db0b60e01b148061052457506301ffc9a760e01b6001600160e01b03198316145b92915050565b60606003805461053990611e6c565b80601f016020809104026020016040519081016040528092919081815260200182805461056590611e6c565b80156105b25780601f10610587576101008083540402835291602001916105b2565b820191906000526020600020905b81548152906001019060200180831161059557829003601f168201915b5050505050905090565b6000336105ca818585610c8a565b5060019392505050565b6000336105e2858285610c97565b6105ed858585610d0f565b506001949350505050565b60008281526005602052604090206001015461061381610d6e565b61061d8383610d7b565b50505050565b600061062d610e0f565b905090565b6001600160a01b038116331461065b5760405163334bd91960e11b815260040160405180910390fd5b6106658282610f3a565b505050565b60115460405163e5e31b1360e01b81523360048201526000916001600160a01b03169063e5e31b1390602401602060405180830381865afa1580156106b3573d6000803e3d6000fd5b505050506040513d601f19601f820116820180604052508101906106d79190611ea6565b90508061071c5760405162461bcd60e51b815260206004820152600e60248201526d24b73b30b634b21029b2b73232b960911b60448201526064015b60405180910390fd5b6106658383610fa7565b600061073181610d6e565b50601180546001600160a01b0319166001600160a01b0392909216919091179055565b6001600160a01b038116600090815260086020526040812054610524565b600060608060008060006060610786610fe1565b61078e61100e565b60408051600080825260208201909252600f60f81b9b939a50919850469750309650945092509050565b6001600160a01b0381166000908152601060205260409020600b906107dc8361103b565b6000816001015464e8d4a51000846001015484600001546107fd9190611ed9565b6108079190611ef0565b6108119190611f12565b835460405163a9059cbb60e01b81526001600160a01b0387811660048301526024820184905292935091169063a9059cbb906044016020604051808303816000875af1158015610865573d6000803e3d6000fd5b505050506040513d601f19601f820116820180604052508101906108899190611ea6565b5082546040516370a0823160e01b81523060048201526001600160a01b03909116906370a0823190602401602060405180830381865afa1580156108d1573d6000803e3d6000fd5b505050506040513d601f19601f820116820180604052508101906108f59190611f25565b60038401556001830154825464e8d4a510009161091191611ed9565b61091b9190611ef0565b826001018190555050505050565b60009182526005602090815260408084206001600160a01b0393909316845291905290205460ff1690565b60606004805461053990611e6c565b6000336105ca818585610d0f565b6001600160a01b0381166000908152601060205260408120600c54600b91908361099a60025490565b90508015610a4d5783546040516370a0823160e01b81523060048201526000916001600160a01b0316906370a0823190602401602060405180830381865afa1580156109ea573d6000803e3d6000fd5b505050506040513d601f19601f82011682018060405250810190610a0e9190611f25565b90506000856003015482610a229190611f12565b905082610a348264e8d4a51000611ed9565b610a3e9190611ef0565b610a489085611f3e565b935050505b6001830154835464e8d4a5100090610a66908590611ed9565b610a709190611ef0565b610a7a9190611f12565b9695505050505050565b6000610a8f81610d6e565b6001600160a01b03831660009081526009602052604090205482151560ff909116151503610aff5760405162461bcd60e51b815260206004820152601e60248201527f47546f6b656e3a20416c726561647920696e2073616d652073746174757300006044820152606401610713565b506001600160a01b03919091166000908152600960205260409020805460ff1916911515919091179055565b83421115610b4f5760405163313c898160e11b815260048101859052602401610713565b60007f6e71edae12b1b97f4d1f60370fef10105fa2faae0126114a169c64845d6126c9888888610b9c8c6001600160a01b0316600090815260086020526040902080546001810190915590565b6040805160208101969096526001600160a01b0394851690860152929091166060840152608083015260a082015260c0810186905260e0016040516020818303038152906040528051906020012090506000610bf782611183565b90506000610c07828787876111b0565b9050896001600160a01b0316816001600160a01b031614610c4e576040516325c0072360e11b81526001600160a01b0380831660048301528b166024820152604401610713565b610c598a8a8a610c8a565b50505050505050505050565b600082815260056020526040902060010154610c8081610d6e565b61061d8383610f3a565b61066583838360016111de565b6001600160a01b03838116600090815260016020908152604080832093861683529290522054600019811461061d5781811015610d0057604051637dc7a0d960e11b81526001600160a01b03841660048201526024810182905260448101839052606401610713565b61061d848484840360006111de565b6001600160a01b038316610d3957604051634b637e8f60e11b815260006004820152602401610713565b6001600160a01b038216610d635760405163ec442f0560e01b815260006004820152602401610713565b6106658383836112b3565b610d788133611788565b50565b6000610d878383610929565b610e075760008381526005602090815260408083206001600160a01b03861684529091529020805460ff19166001179055610dbf3390565b6001600160a01b0316826001600160a01b0316847f2f8788117e7eff1d82e926ec794901d17c78024a50270940304540a733656f0d60405160405180910390a4506001610524565b506000610524565b6000306001600160a01b037f000000000000000000000000000000000000000000000000000000000000000016148015610e6857507f000000000000000000000000000000000000000000000000000000000000000046145b15610e9257507f000000000000000000000000000000000000000000000000000000000000000090565b61062d604080517f8b73c3c69bb8fe3d512ecc4cf759cc79239f7b179b0ffacaa9a75d522b39400f60208201527f0000000000000000000000000000000000000000000000000000000000000000918101919091527f000000000000000000000000000000000000000000000000000000000000000060608201524660808201523060a082015260009060c00160405160208183030381529060405280519060200120905090565b6000610f468383610929565b15610e075760008381526005602090815260408083206001600160a01b0386168085529252808320805460ff1916905551339286917ff6391f5c32d9c69d2a47ea670b442974b53935d1edc7fd64eb21e047a839171b9190a4506001610524565b6001600160a01b038216610fd15760405163ec442f0560e01b815260006004820152602401610713565b610fdd600083836112b3565b5050565b606061062d7f000000000000000000000000000000000000000000000000000000000000000060066117c1565b606061062d7f000000000000000000000000000000000000000000000000000000000000000060076117c1565b6001600160a01b03818116600090815260106020526040808220600b805492516370a0823160e01b81523060048201529094919392909116906370a0823190602401602060405180830381865afa15801561109a573d6000803e3d6000fd5b505050506040513d601f19601f820116820180604052508101906110be9190611f25565b905060008360030154826110d29190611f12565b84600401546110e19190611f3e565b6003850183905560048501819055905060006110fc60025490565b905080600003611131575050600060018085018290556002850182905592909201829055506003820181905560049091015550565b60008560020154836111439190611f12565b9050816111558264e8d4a51000611ed9565b61115f9190611ef0565b866001015461116e9190611f3e565b60018701555050600290930192909255505050565b6000610524611190610e0f565b8360405161190160f01b8152600281019290925260228201526042902090565b6000806000806111c28888888861186c565b9250925092506111d2828261193b565b50909695505050505050565b6001600160a01b0384166112085760405163e602df0560e01b815260006004820152602401610713565b6001600160a01b03831661123257604051634a1406b160e11b815260006004820152602401610713565b6001600160a01b038085166000908152600160209081526040808320938716835292905220829055801561061d57826001600160a01b0316846001600160a01b03167f8c5be1e5ebec7d5bd14f71427d1e84f3dd0314c0f7b2291e5b200ac8c7c3b925846040516112a591815260200190565b60405180910390a350505050565b6001600160a01b0383166000908152600960205260409020548390839060ff16806112f657506001600160a01b03811660009081526009602052604090205460ff165b8061130857506001600160a01b038216155b61135f5760405162461bcd60e51b815260206004820152602260248201527f47546f6b656e3a2041646472657373206973206e6f742077686974656c697374604482015261195960f21b6064820152608401610713565b61136a8585856119f4565b600b6001600160a01b0386166114ff576001600160a01b038516600090815260106020526040902061139b8661103b565b6000816001015464e8d4a51000846001015484600001546113bc9190611ed9565b6113c69190611ef0565b6113d09190611f12565b9050801561145057825460405163a9059cbb60e01b81526001600160a01b038981166004830152602482018490529091169063a9059cbb906044016020604051808303816000875af115801561142a573d6000803e3d6000fd5b505050506040513d601f19601f8201168201806040525081019061144e9190611ea6565b505b82546040516370a0823160e01b81523060048201526001600160a01b03909116906370a0823190602401602060405180830381865afa158015611497573d6000803e3d6000fd5b505050506040513d601f19601f820116820180604052508101906114bb9190611f25565b600384015581546114cd908790611f3e565b808355600184015464e8d4a51000916114e69190611ed9565b6114f09190611ef0565b82600101819055505050611780565b6001600160a01b03808716600090815260106020526040808220928816825290206115298861103b565b6115328761103b565b6000826001015464e8d4a51000856001015485600001546115539190611ed9565b61155d9190611ef0565b6115679190611f12565b905080156115e757835460405163a9059cbb60e01b81526001600160a01b038b81166004830152602482018490529091169063a9059cbb906044016020604051808303816000875af11580156115c1573d6000803e3d6000fd5b505050506040513d601f19601f820116820180604052508101906115e59190611ea6565b505b6000826001015464e8d4a51000866001015485600001546116089190611ed9565b6116129190611ef0565b61161c9190611f12565b9050801561169c57845460405163a9059cbb60e01b81526001600160a01b038b81166004830152602482018490529091169063a9059cbb906044016020604051808303816000875af1158015611676573d6000803e3d6000fd5b505050506040513d601f19601f8201168201806040525081019061169a9190611ea6565b505b84546040516370a0823160e01b81523060048201526001600160a01b03909116906370a0823190602401602060405180830381865afa1580156116e3573d6000803e3d6000fd5b505050506040513d601f19601f820116820180604052508101906117079190611f25565b60038601558354611719908990611f12565b84558254611728908990611f3e565b83556001850154845464e8d4a510009161174191611ed9565b61174b9190611ef0565b600180860191909155850154835464e8d4a510009161176991611ed9565b6117739190611ef0565b8360010181905550505050505b505050505050565b6117928282610929565b610fdd5760405163e2517d3f60e01b81526001600160a01b038216600482015260248101839052604401610713565b606060ff83146117db576117d483611b1e565b9050610524565b8180546117e790611e6c565b80601f016020809104026020016040519081016040528092919081815260200182805461181390611e6c565b80156118605780601f1061183557610100808354040283529160200191611860565b820191906000526020600020905b81548152906001019060200180831161184357829003601f168201915b50505050509050610524565b600080807f7fffffffffffffffffffffffffffffff5d576e7357a4501ddfe92f46681b20a08411156118a75750600091506003905082611931565b604080516000808252602082018084528a905260ff891692820192909252606081018790526080810186905260019060a0016020604051602081039080840390855afa1580156118fb573d6000803e3d6000fd5b5050604051601f1901519150506001600160a01b03811661192757506000925060019150829050611931565b9250600091508190505b9450945094915050565b600082600381111561194f5761194f611f51565b03611958575050565b600182600381111561196c5761196c611f51565b0361198a5760405163f645eedf60e01b815260040160405180910390fd5b600282600381111561199e5761199e611f51565b036119bf5760405163fce698f760e01b815260048101829052602401610713565b60038260038111156119d3576119d3611f51565b03610fdd576040516335e2f38360e21b815260048101829052602401610713565b6001600160a01b038316611a1f578060026000828254611a149190611f3e565b90915550611a919050565b6001600160a01b03831660009081526020819052604090205481811015611a725760405163391434e360e21b81526001600160a01b03851660048201526024810182905260448101839052606401610713565b6001600160a01b03841660009081526020819052604090209082900390555b6001600160a01b038216611aad57600280548290039055611acc565b6001600160a01b03821660009081526020819052604090208054820190555b816001600160a01b0316836001600160a01b03167fddf252ad1be2c89b69c2b068fc378daa952ba7f163c4a11628f55a4df523b3ef83604051611b1191815260200190565b60405180910390a3505050565b60606000611b2b83611b5d565b604080516020808252818301909252919250600091906020820181803683375050509182525060208101929092525090565b600060ff8216601f81111561052457604051632cd44ac360e21b815260040160405180910390fd5b600060208284031215611b9757600080fd5b81356001600160e01b031981168114611baf57600080fd5b9392505050565b6000815180845260005b81811015611bdc57602081850181015186830182015201611bc0565b506000602082860101526020601f19601f83011685010191505092915050565b602081526000611baf6020830184611bb6565b80356001600160a01b0381168114611c2657600080fd5b919050565b60008060408385031215611c3e57600080fd5b611c4783611c0f565b946020939093013593505050565b600060208284031215611c6757600080fd5b611baf82611c0f565b600080600060608486031215611c8557600080fd5b611c8e84611c0f565b9250611c9c60208501611c0f565b9150604084013590509250925092565b600060208284031215611cbe57600080fd5b5035919050565b60008060408385031215611cd857600080fd5b82359150611ce860208401611c0f565b90509250929050565b60ff60f81b881681526000602060e06020840152611d1260e084018a611bb6565b8381036040850152611d24818a611bb6565b606085018990526001600160a01b038816608086015260a0850187905284810360c08601528551808252602080880193509091019060005b81811015611d7857835183529284019291840191600101611d5c565b50909c9b505050505050505050505050565b8015158114610d7857600080fd5b60008060408385031215611dab57600080fd5b611db483611c0f565b91506020830135611dc481611d8a565b809150509250929050565b600080600080600080600060e0888a031215611dea57600080fd5b611df388611c0f565b9650611e0160208901611c0f565b95506040880135945060608801359350608088013560ff81168114611e2557600080fd5b9699959850939692959460a0840135945060c09093013592915050565b60008060408385031215611e5557600080fd5b611e5e83611c0f565b9150611ce860208401611c0f565b600181811c90821680611e8057607f821691505b602082108103611ea057634e487b7160e01b600052602260045260246000fd5b50919050565b600060208284031215611eb857600080fd5b8151611baf81611d8a565b634e487b7160e01b600052601160045260246000fd5b808202811582820484141761052457610524611ec3565b600082611f0d57634e487b7160e01b600052601260045260246000fd5b500490565b8181038181111561052457610524611ec3565b600060208284031215611f3757600080fd5b5051919050565b8082018082111561052457610524611ec3565b634e487b7160e01b600052602160045260246000fdfea2646970667358221220c11d28e34eff5f3872e77b56e274a350472facc3e40d5f8b071ba4bd452961e564736f6c63430008170033",
  "linkReferences": {},
  "deployedLinkReferences": {}
}