{
  "_format": "hh-sol-artifact-1",
  "contractName": "UBADexPair",
  "sourceName": "contracts/Dex/UBADexPair.sol",
  "abi": [
    {
      "inputs": [],
      "stateMutability": "nonpayable",
      "type": "constructor"
    },
    {
      "anonymous": false,
      "inputs": [
        {
          "indexed": true,
          "internalType": "address",
          "name": "owner",
          "type": "address"
        },
        {
          "indexed": true,
          "internalType": "address",
          "name": "spender",
          "type": "address"
        },
        {
          "indexed": false,
          "internalType": "uint256",
          "name": "value",
          "type": "uint256"
        }
      ],
      "name": "Approval",
      "type": "event"
    },
    {
      "anonymous": false,
      "inputs": [
        {
          "indexed": true,
          "internalType": "address",
          "name": "sender",
          "type": "address"
        },
        {
          "indexed": false,
          "internalType": "uint256",
          "name": "amount0",
          "type": "uint256"
        },
        {
          "indexed": false,
          "internalType": "uint256",
          "name": "amount1",
          "type": "uint256"
        },
        {
          "indexed": true,
          "internalType": "address",
          "name": "to",
          "type": "address"
        }
      ],
      "name": "Burn",
      "type": "event"
    },
    {
      "anonymous": false,
      "inputs": [
        {
          "indexed": true,
          "internalType": "address",
          "name": "sender",
          "type": "address"
        },
        {
          "indexed": false,
          "internalType": "uint256",
          "name": "amount0",
          "type": "uint256"
        },
        {
          "indexed": false,
          "internalType": "uint256",
          "name": "amount1",
          "type": "uint256"
        }
      ],
      "name": "Mint",
      "type": "event"
    },
    {
      "anonymous": false,
      "inputs": [
        {
          "indexed": true,
          "internalType": "address",
          "name": "sender",
          "type": "address"
        },
        {
          "indexed": false,
          "internalType": "uint256",
          "name": "amount0In",
          "type": "uint256"
        },
        {
          "indexed": false,
          "internalType": "uint256",
          "name": "amount1In",
          "type": "uint256"
        },
        {
          "indexed": false,
          "internalType": "uint256",
          "name": "amount0Out",
          "type": "uint256"
        },
        {
          "indexed": false,
          "internalType": "uint256",
          "name": "amount1Out",
          "type": "uint256"
        },
        {
          "indexed": true,
          "internalType": "address",
          "name": "to",
          "type": "address"
        }
      ],
      "name": "Swap",
      "type": "event"
    },
    {
      "anonymous": false,
      "inputs": [
        {
          "indexed": false,
          "internalType": "uint112",
          "name": "reserve0",
          "type": "uint112"
        },
        {
          "indexed": false,
          "internalType": "uint112",
          "name": "reserve1",
          "type": "uint112"
        }
      ],
      "name": "Sync",
      "type": "event"
    },
    {
      "anonymous": false,
      "inputs": [
        {
          "indexed": true,
          "internalType": "address",
          "name": "from",
          "type": "address"
        },
        {
          "indexed": true,
          "internalType": "address",
          "name": "to",
          "type": "address"
        },
        {
          "indexed": false,
          "internalType": "uint256",
          "name": "value",
          "type": "uint256"
        }
      ],
      "name": "Transfer",
      "type": "event"
    },
    {
      "inputs": [],
      "name": "DOMAIN_SEPARATOR",
      "outputs": [
        {
          "internalType": "bytes32",
          "name": "",
          "type": "bytes32"
        }
      ],
      "stateMutability": "view",
      "type": "function"
    },
    {
      "inputs": [],
      "name": "MINIMUM_LIQUIDITY",
      "outputs": [
        {
          "internalType": "uint256",
          "name": "",
          "type": "uint256"
        }
      ],
      "stateMutability": "view",
      "type": "function"
    },
    {
      "inputs": [],
      "name": "PERMIT_TYPEHASH",
      "outputs": [
        {
          "internalType": "bytes32",
          "name": "",
          "type": "bytes32"
        }
      ],
      "stateMutability": "view",
      "type": "function"
    },
    {
      "inputs": [
        {
          "internalType": "address",
          "name": "",
          "type": "address"
        },
        {
          "internalType": "address",
          "name": "",
          "type": "address"
        }
      ],
      "name": "allowance",
      "outputs": [
        {
          "internalType": "uint256",
          "name": "",
          "type": "uint256"
        }
      ],
      "stateMutability": "view",
      "type": "function"
    },
    {
      "inputs": [
        {
          "internalType": "address",
          "name": "spender",
          "type": "address"
        },
        {
          "internalType": "uint256",
          "name": "value",
          "type": "uint256"
        }
      ],
      "name": "approve",
      "outputs": [
        {
          "internalType": "bool",
          "name": "",
          "type": "bool"
        }
      ],
      "stateMutability": "nonpayable",
      "type": "function"
    },
    {
      "inputs": [
        {
          "internalType": "address",
          "name": "",
          "type": "address"
        }
      ],
      "name": "balanceOf",
      "outputs": [
        {
          "internalType": "uint256",
          "name": "",
          "type": "uint256"
        }
      ],
      "stateMutability": "view",
      "type": "function"
    },
    {
      "inputs": [
        {
          "internalType": "address",
          "name": "to",
          "type": "address"
        }
      ],
      "name": "burn",
      "outputs": [
        {
          "internalType": "uint256",
          "name": "amount0",
          "type": "uint256"
        },
        {
          "internalType": "uint256",
          "name": "amount1",
          "type": "uint256"
        }
      ],
      "stateMutability": "nonpayable",
      "type": "function"
    },
    {
      "inputs": [],
      "name": "decimals",
      "outputs": [
        {
          "internalType": "uint8",
          "name": "",
          "type": "uint8"
        }
      ],
      "stateMutability": "view",
      "type": "function"
    },
    {
      "inputs": [],
      "name": "factory",
      "outputs": [
        {
          "internalType": "address",
          "name": "",
          "type": "address"
        }
      ],
      "stateMutability": "view",
      "type": "function"
    },
    {
      "inputs": [],
      "name": "gTokenFee",
      "outputs": [
        {
          "internalType": "uint256",
          "name": "",
          "type": "uint256"
        }
      ],
      "stateMutability": "view",
      "type": "function"
    },
    {
      "inputs": [],
      "name": "getReserves",
      "outputs": [
        {
          "internalType": "uint112",
          "name": "_reserve0",
          "type": "uint112"
        },
        {
          "internalType": "uint112",
          "name": "_reserve1",
          "type": "uint112"
        },
        {
          "internalType": "uint32",
          "name": "_blockTimestampLast",
          "type": "uint32"
        }
      ],
      "stateMutability": "view",
      "type": "function"
    },
    {
      "inputs": [
        {
          "internalType": "address",
          "name": "_token0",
          "type": "address"
        },
        {
          "internalType": "address",
          "name": "_token1",
          "type": "address"
        },
        {
          "internalType": "uint256",
          "name": "_gTokenFee",
          "type": "uint256"
        }
      ],
      "name": "initialize",
      "outputs": [],
      "stateMutability": "nonpayable",
      "type": "function"
    },
    {
      "inputs": [],
      "name": "kLast",
      "outputs": [
        {
          "internalType": "uint256",
          "name": "",
          "type": "uint256"
        }
      ],
      "stateMutability": "view",
      "type": "function"
    },
    {
      "inputs": [
        {
          "internalType": "address",
          "name": "to",
          "type": "address"
        }
      ],
      "name": "mint",
      "outputs": [
        {
          "internalType": "uint256",
          "name": "liquidity",
          "type": "uint256"
        }
      ],
      "stateMutability": "nonpayable",
      "type": "function"
    },
    {
      "inputs": [],
      "name": "name",
      "outputs": [
        {
          "internalType": "string",
          "name": "",
          "type": "string"
        }
      ],
      "stateMutability": "view",
      "type": "function"
    },
    {
      "inputs": [
        {
          "internalType": "address",
          "name": "",
          "type": "address"
        }
      ],
      "name": "nonces",
      "outputs": [
        {
          "internalType": "uint256",
          "name": "",
          "type": "uint256"
        }
      ],
      "stateMutability": "view",
      "type": "function"
    },
    {
      "inputs": [
        {
          "internalType": "address",
          "name": "owner",
          "type": "address"
        },
        {
          "internalType": "address",
          "name": "spender",
          "type": "address"
        },
        {
          "internalType": "uint256",
          "name": "value",
          "type": "uint256"
        },
        {
          "internalType": "uint256",
          "name": "deadline",
          "type": "uint256"
        },
        {
          "internalType": "uint8",
          "name": "v",
          "type": "uint8"
        },
        {
          "internalType": "bytes32",
          "name": "r",
          "type": "bytes32"
        },
        {
          "internalType": "bytes32",
          "name": "s",
          "type": "bytes32"
        }
      ],
      "name": "permit",
      "outputs": [],
      "stateMutability": "nonpayable",
      "type": "function"
    },
    {
      "inputs": [],
      "name": "price0CumulativeLast",
      "outputs": [
        {
          "internalType": "uint256",
          "name": "",
          "type": "uint256"
        }
      ],
      "stateMutability": "view",
      "type": "function"
    },
    {
      "inputs": [],
      "name": "price1CumulativeLast",
      "outputs": [
        {
          "internalType": "uint256",
          "name": "",
          "type": "uint256"
        }
      ],
      "stateMutability": "view",
      "type": "function"
    },
    {
      "inputs": [
        {
          "internalType": "address",
          "name": "to",
          "type": "address"
        }
      ],
      "name": "skim",
      "outputs": [],
      "stateMutability": "nonpayable",
      "type": "function"
    },
    {
      "inputs": [
        {
          "internalType": "uint256",
          "name": "amount0Out",
          "type": "uint256"
        },
        {
          "internalType": "uint256",
          "name": "amount1Out",
          "type": "uint256"
        },
        {
          "internalType": "address",
          "name": "to",
          "type": "address"
        },
        {
          "internalType": "bytes",
          "name": "data",
          "type": "bytes"
        }
      ],
      "name": "swap",
      "outputs": [],
      "stateMutability": "nonpayable",
      "type": "function"
    },
    {
      "inputs": [],
      "name": "symbol",
      "outputs": [
        {
          "internalType": "string",
          "name": "",
          "type": "string"
        }
      ],
      "stateMutability": "view",
      "type": "function"
    },
    {
      "inputs": [],
      "name": "sync",
      "outputs": [],
      "stateMutability": "nonpayable",
      "type": "function"
    },
    {
      "inputs": [],
      "name": "token0",
      "outputs": [
        {
          "internalType": "address",
          "name": "",
          "type": "address"
        }
      ],
      "stateMutability": "view",
      "type": "function"
    },
    {
      "inputs": [],
      "name": "token1",
      "outputs": [
        {
          "internalType": "address",
          "name": "",
          "type": "address"
        }
      ],
      "stateMutability": "view",
      "type": "function"
    },
    {
      "inputs": [],
      "name": "totalSupply",
      "outputs": [
        {
          "internalType": "uint256",
          "name": "",
          "type": "uint256"
        }
      ],
      "stateMutability": "view",
      "type": "function"
    },
    {
      "inputs": [
        {
          "internalType": "address",
          "name": "to",
          "type": "address"
        },
        {
          "internalType": "uint256",
          "name": "value",
          "type": "uint256"
        }
      ],
      "name": "transfer",
      "outputs": [
        {
          "internalType": "bool",
          "name": "",
          "type": "bool"
        }
      ],
      "stateMutability": "nonpayable",
      "type": "function"
    },
    {
      "inputs": [
        {
          "internalType": "address",
          "name": "from",
          "type": "address"
        },
        {
          "internalType": "address",
          "name": "to",
          "type": "address"
        },
        {
          "internalType": "uint256",
          "name": "value",
          "type": "uint256"
        }
      ],
      "name": "transferFrom",
      "outputs": [
        {
          "internalType": "bool",
          "name": "",
          "type": "bool"
        }
      ],
      "stateMutability": "nonpayable",
      "type": "function"
    }
  ],
  "bytecode": "0x60806040526001600d5534801561001557600080fd5b50604080518082018252600f81526e2aa120a232bc102628102a37b5b2b760891b6020918201528151808301835260018152603160f81b9082015281517f8b73c3c69bb8fe3d512ecc4cf759cc79239f7b179b0ffacaa9a75d522b39400f818301527f187a5b6741e45c74f55cabd3bb990d95d4a7a1d805b2ae84fa255140b734285c818401527fc89efdaa54c0f20c7adf612882df0950f5a951637e0307cdcb4c672f298b8bc660608201524660808201523060a0808301919091528351808303909101815260c09091019092528151910120600355600580546001600160a01b031916331790556124f48061010d6000396000f3fe608060405234801561001057600080fd5b50600436106101c45760003560e01c806370a08231116100f9578063ba9a7a5611610097578063d21220a711610071578063d21220a71461055f578063d505accf14610567578063dd62ed3e146105b8578063fff6cae9146105e6576101c4565b8063ba9a7a5614610529578063bc25cf7714610531578063c45a015514610557576101c4565b806389afcb44116100d357806389afcb44146104ae57806391e20d3a146104ed57806395d89b41146104f5578063a9059cbb146104fd576101c4565b806370a082311461045a5780637464fc3d146104805780637ecebe0014610488576101c4565b806323b872dd116101665780633644e515116101405780633644e5151461041c5780635909c0d5146104245780635a3d54931461042c5780636a62784214610434576101c4565b806323b872dd146103c057806330adf81f146103f6578063313ce567146103fe576101c4565b8063095ea7b3116101a2578063095ea7b31461030c5780630dfe16811461034c5780631794bb3c1461037057806318160ddd146103a6576101c4565b8063022c0d9f146101c957806306fdde03146102575780630902f1ac146102d4575b600080fd5b610255600480360360808110156101df57600080fd5b8135916020810135916001600160a01b03604083013516919081019060808101606082013564010000000081111561021657600080fd5b82018360208201111561022857600080fd5b8035906020019184600183028401116401000000008311171561024a57600080fd5b5090925090506105ee565b005b61025f610b03565b6040805160208082528351818301528351919283929083019185019080838360005b83811015610299578181015183820152602001610281565b50505050905090810190601f1680156102c65780820380516001836020036101000a031916815260200191505b509250505060405180910390f35b6102dc610b2e565b604080516001600160701b03948516815292909316602083015263ffffffff168183015290519081900360600190f35b6103386004803603604081101561032257600080fd5b506001600160a01b038135169060200135610b58565b604080519115158252519081900360200190f35b610354610b6f565b604080516001600160a01b039092168252519081900360200190f35b6102556004803603606081101561038657600080fd5b506001600160a01b03813581169160208101359091169060400135610b7e565b6103ae610c06565b60408051918252519081900360200190f35b610338600480360360608110156103d657600080fd5b506001600160a01b03813581169160208101359091169060400135610c0c565b6103ae610ca0565b610406610cc4565b6040805160ff9092168252519081900360200190f35b6103ae610cc9565b6103ae610ccf565b6103ae610cd5565b6103ae6004803603602081101561044a57600080fd5b50356001600160a01b0316610cdb565b6103ae6004803603602081101561047057600080fd5b50356001600160a01b0316611154565b6103ae611166565b6103ae6004803603602081101561049e57600080fd5b50356001600160a01b031661116c565b6104d4600480360360208110156104c457600080fd5b50356001600160a01b031661117e565b6040805192835260208301919091528051918290030190f35b6103ae61150f565b61025f611515565b6103386004803603604081101561051357600080fd5b506001600160a01b038135169060200135611534565b6103ae611541565b6102556004803603602081101561054757600080fd5b50356001600160a01b0316611547565b6103546116b6565b6103546116c5565b610255600480360360e081101561057d57600080fd5b506001600160a01b03813581169160208101359091169060408101359060608101359060ff6080820135169060a08101359060c001356116d4565b6103ae600480360360408110156105ce57600080fd5b506001600160a01b03813581169160200135166118d3565b6102556118f0565b600d54600114610636576040805162461bcd60e51b815260206004820152600e60248201526d15509051195e0e881313d0d2d15160921b604482015290519081900360640190fd5b6000600d55841515806106495750600084115b6106845760405162461bcd60e51b81526004018080602001828103825260228152602001806124576022913960400191505060405180910390fd5b60008061068f610b2e565b5091509150816001600160701b0316871080156106b45750806001600160701b031686105b610705576040805162461bcd60e51b815260206004820152601e60248201527f5542414465783a20494e53554646494349454e545f4c49515549444954590000604482015290519081900360640190fd5b60065460075460009182916001600160a01b039182169190811690891682148015906107435750806001600160a01b0316896001600160a01b031614155b610789576040805162461bcd60e51b81526020600482015260126024820152715542414465783a20494e56414c49445f544f60701b604482015290519081900360640190fd5b8a1561079a5761079a828a8d611a4f565b89156107ab576107ab818a8c611a4f565b861561085d57886001600160a01b03166301e37606338d8d8c8c6040518663ffffffff1660e01b815260040180866001600160a01b03168152602001858152602001848152602001806020018281038252848482818152602001925080828437600081840152601f19601f8201169050808301925050509650505050505050600060405180830381600087803b15801561084457600080fd5b505af1158015610858573d6000803e3d6000fd5b505050505b604080516370a0823160e01b815230600482015290516001600160a01b038416916370a08231916024808301926020929190829003018186803b1580156108a357600080fd5b505afa1580156108b7573d6000803e3d6000fd5b505050506040513d60208110156108cd57600080fd5b5051604080516370a0823160e01b815230600482015290519195506001600160a01b038316916370a0823191602480820192602092909190829003018186803b15801561091957600080fd5b505afa15801561092d573d6000803e3d6000fd5b505050506040513d602081101561094357600080fd5b5051925060009150506001600160701b0385168a90038311610966576000610975565b89856001600160701b03160383035b9050600089856001600160701b03160383116109925760006109a1565b89856001600160701b03160383035b905060008211806109b25750600081115b6109ed5760405162461bcd60e51b815260040180806020018281038252602181526020018061249e6021913960400191505060405180910390fd5b6000610a0f6109fd846003611be9565b610a09876103e8611be9565b90611c4c565b90506000610a216109fd846003611be9565b9050610a46620f4240610a406001600160701b038b8116908b16611be9565b90611be9565b610a508383611be9565b1015610a8f576040805162461bcd60e51b81526020600482015260096024820152685542414465783a204b60b81b604482015290519081900360640190fd5b5050610a9d84848888611c9c565b60408051838152602081018390528082018d9052606081018c905290516001600160a01b038b169133917fd78ad95fa46c994b6551d0da85fc275fe613ce37657fb8d5e3d130840159d8229181900360800190a350506001600d55505050505050505050565b6040518060400160405280600f81526020016e2aa120a232bc102628102a37b5b2b760891b81525081565b6008546001600160701b0380821692600160701b830490911691600160e01b900463ffffffff1690565b6000610b65338484611e58565b5060015b92915050565b6006546001600160a01b031681565b6005546001600160a01b03163314610bd1576040805162461bcd60e51b81526020600482015260116024820152702aa120a232bc1d102327a92124a22222a760791b604482015290519081900360640190fd5b600680546001600160a01b039485166001600160a01b0319918216179091556007805493909416921691909117909155600c55565b60005481565b6001600160a01b038316600090815260026020908152604080832033845290915281205460001914610c8b576001600160a01b0384166000908152600260209081526040808320338452909152902054610c669083611c4c565b6001600160a01b03851660009081526002602090815260408083203384529091529020555b610c96848484611eba565b5060019392505050565b7f6e71edae12b1b97f4d1f60370fef10105fa2faae0126114a169c64845d6126c981565b601281565b60035481565b60095481565b600a5481565b6000600d54600114610d25576040805162461bcd60e51b815260206004820152600e60248201526d15509051195e0e881313d0d2d15160921b604482015290519081900360640190fd5b6000600d81905580610d35610b2e565b50600654604080516370a0823160e01b815230600482015290519395509193506000926001600160a01b03909116916370a08231916024808301926020929190829003018186803b158015610d8957600080fd5b505afa158015610d9d573d6000803e3d6000fd5b505050506040513d6020811015610db357600080fd5b5051600754604080516370a0823160e01b815230600482015290519293506000926001600160a01b03909216916370a0823191602480820192602092909190829003018186803b158015610e0657600080fd5b505afa158015610e1a573d6000803e3d6000fd5b505050506040513d6020811015610e3057600080fd5b505190506000610e49836001600160701b038716611c4c565b90506000610e60836001600160701b038716611c4c565b90506000610e6e878761202d565b600054909150806110455760055460408051637cd07e4760e01b815290516000926001600160a01b031691637cd07e47916004808301926020929190829003018186803b158015610ebe57600080fd5b505afa158015610ed2573d6000803e3d6000fd5b505050506040513d6020811015610ee857600080fd5b50519050336001600160a01b0382161415610fc357806001600160a01b03166340dc0e376040518163ffffffff1660e01b815260040160206040518083038186803b158015610f3657600080fd5b505afa158015610f4a573d6000803e3d6000fd5b505050506040513d6020811015610f6057600080fd5b505199508915801590610f7557506000198a14155b610fbe576040805162461bcd60e51b81526020600482015260156024820152744261642064657369726564206c697175696469747960581b604482015290519081900360640190fd5b61103f565b6001600160a01b03811615611018576040805162461bcd60e51b815260206004820152601660248201527526bab9ba103737ba103430bb329036b4b3b930ba37b960511b604482015290519081900360640190fd5b6110306103e8610a0961102b8888611be9565b612177565b995061103f60006103e86121c9565b50611088565b6110856001600160701b03891661105c8684611be9565b8161106357fe5b046001600160701b0389166110788685611be9565b8161107f57fe5b04612253565b98505b600089116110c75760405162461bcd60e51b81526004018080602001828103825260258152602001806124326025913960400191505060405180910390fd5b6110d18a8a6121c9565b6110dd86868a8a611c9c565b811561110757600854611103906001600160701b0380821691600160701b900416611be9565b600b555b6040805185815260208101859052815133927f4c209b5fc8ad50758f13e2e1088ba56a560dff690a1c6fef26394f4c03821c4f928290030190a250506001600d5550949695505050505050565b60016020526000908152604090205481565b600b5481565b60046020526000908152604090205481565b600080600d546001146111c9576040805162461bcd60e51b815260206004820152600e60248201526d15509051195e0e881313d0d2d15160921b604482015290519081900360640190fd5b6000600d819055806111d9610b2e565b50600654600754604080516370a0823160e01b815230600482015290519496509294506001600160a01b039182169391169160009184916370a08231916024808301926020929190829003018186803b15801561123557600080fd5b505afa158015611249573d6000803e3d6000fd5b505050506040513d602081101561125f57600080fd5b5051604080516370a0823160e01b815230600482015290519192506000916001600160a01b038516916370a08231916024808301926020929190829003018186803b1580156112ad57600080fd5b505afa1580156112c1573d6000803e3d6000fd5b505050506040513d60208110156112d757600080fd5b5051306000908152600160205260408120549192506112f6888861202d565b600054909150806113078487611be9565b8161130e57fe5b049a508061131c8486611be9565b8161132357fe5b04995060008b118015611336575060008a115b6113715760405162461bcd60e51b81526004018080602001828103825260258152602001806124796025913960400191505060405180910390fd5b61137b308461226b565b611386878d8d611a4f565b611391868d8c611a4f565b604080516370a0823160e01b815230600482015290516001600160a01b038916916370a08231916024808301926020929190829003018186803b1580156113d757600080fd5b505afa1580156113eb573d6000803e3d6000fd5b505050506040513d602081101561140157600080fd5b5051604080516370a0823160e01b815230600482015290519196506001600160a01b038816916370a0823191602480820192602092909190829003018186803b15801561144d57600080fd5b505afa158015611461573d6000803e3d6000fd5b505050506040513d602081101561147757600080fd5b5051935061148785858b8b611c9c565b81156114b1576008546114ad906001600160701b0380821691600160701b900416611be9565b600b555b604080518c8152602081018c905281516001600160a01b038f169233927fdccd412f0b1252819cb1fd330b93224ca42612892bb3f4f789976e6d81936496929081900390910190a35050505050505050506001600d81905550915091565b600c5481565b604051806040016040528060038152602001620554c560ec1b81525081565b6000610b65338484611eba565b6103e881565b600d5460011461158f576040805162461bcd60e51b815260206004820152600e60248201526d15509051195e0e881313d0d2d15160921b604482015290519081900360640190fd5b6000600d55600654600754600854604080516370a0823160e01b815230600482015290516001600160a01b0394851694909316926116389285928792611633926001600160701b03169185916370a0823191602480820192602092909190829003018186803b15801561160157600080fd5b505afa158015611615573d6000803e3d6000fd5b505050506040513d602081101561162b57600080fd5b505190611c4c565b611a4f565b6116ac81846116336008600e9054906101000a90046001600160701b03166001600160701b0316856001600160a01b03166370a08231306040518263ffffffff1660e01b815260040180826001600160a01b0316815260200191505060206040518083038186803b15801561160157600080fd5b50506001600d5550565b6005546001600160a01b031681565b6007546001600160a01b031681565b4284101561171b576040805162461bcd60e51b815260206004820152600f60248201526e15509051195e0e8811561412549151608a1b604482015290519081900360640190fd5b6003546001600160a01b0380891660008181526004602090815260408083208054600180820190925582517f6e71edae12b1b97f4d1f60370fef10105fa2faae0126114a169c64845d6126c98186015280840196909652958d166060860152608085018c905260a085019590955260c08085018b90528151808603909101815260e08501825280519083012061190160f01b6101008601526101028501969096526101228085019690965280518085039096018652610142840180825286519683019690962095839052610162840180825286905260ff89166101828501526101a284018890526101c28401879052519193926101e280820193601f1981019281900390910190855afa158015611836573d6000803e3d6000fd5b5050604051601f1901519150506001600160a01b0381161580159061186c5750886001600160a01b0316816001600160a01b0316145b6118bd576040805162461bcd60e51b815260206004820152601960248201527f5542414465783a20494e56414c49445f5349474e415455524500000000000000604482015290519081900360640190fd5b6118c8898989611e58565b505050505050505050565b600260209081526000928352604080842090915290825290205481565b600d54600114611938576040805162461bcd60e51b815260206004820152600e60248201526d15509051195e0e881313d0d2d15160921b604482015290519081900360640190fd5b6000600d55600654604080516370a0823160e01b81523060048201529051611a48926001600160a01b0316916370a08231916024808301926020929190829003018186803b15801561198957600080fd5b505afa15801561199d573d6000803e3d6000fd5b505050506040513d60208110156119b357600080fd5b5051600754604080516370a0823160e01b815230600482015290516001600160a01b03909216916370a0823191602480820192602092909190829003018186803b158015611a0057600080fd5b505afa158015611a14573d6000803e3d6000fd5b505050506040513d6020811015611a2a57600080fd5b50516008546001600160701b0380821691600160701b900416611c9c565b6001600d55565b604080518082018252601981527f7472616e7366657228616464726573732c75696e74323536290000000000000060209182015281516001600160a01b0385811660248301526044808301869052845180840390910181526064909201845291810180516001600160e01b031663a9059cbb60e01b1781529251815160009460609489169392918291908083835b60208310611afc5780518252601f199092019160209182019101611add565b6001836020036101000a0380198251168184511680821785525050505050509050019150506000604051808303816000865af19150503d8060008114611b5e576040519150601f19603f3d011682016040523d82523d6000602084013e611b63565b606091505b5091509150818015611b91575080511580611b915750808060200190516020811015611b8e57600080fd5b50515b611be2576040805162461bcd60e51b815260206004820152601760248201527f5542414465783a205452414e534645525f4641494c4544000000000000000000604482015290519081900360640190fd5b5050505050565b6000811580611c0457505080820282828281611c0157fe5b04145b610b69576040805162461bcd60e51b815260206004820152601460248201527364732d6d6174682d6d756c2d6f766572666c6f7760601b604482015290519081900360640190fd5b80820382811115610b69576040805162461bcd60e51b815260206004820152601560248201527464732d6d6174682d7375622d756e646572666c6f7760581b604482015290519081900360640190fd5b6001600160701b038411801590611cba57506001600160701b038311155b611cfe576040805162461bcd60e51b815260206004820152601060248201526f5542414465783a204f564552464c4f5760801b604482015290519081900360640190fd5b60085463ffffffff42811691600160e01b90048116820390811615801590611d2e57506001600160701b03841615155b8015611d4257506001600160701b03831615155b15611dad578063ffffffff16611d6a85611d5b866122fd565b6001600160e01b03169061230f565b600980546001600160e01b03929092169290920201905563ffffffff8116611d9584611d5b876122fd565b600a80546001600160e01b0392909216929092020190555b600880546dffffffffffffffffffffffffffff19166001600160701b03888116919091176dffffffffffffffffffffffffffff60701b1916600160701b8883168102919091176001600160e01b0316600160e01b63ffffffff871602179283905560408051848416815291909304909116602082015281517f1c411e9a96e071241c2f21f7726b17ae89e3cab4c78be50e062b03a9fffbbad1929181900390910190a1505050505050565b6001600160a01b03808416600081815260026020908152604080832094871680845294825291829020859055815185815291517f8c5be1e5ebec7d5bd14f71427d1e84f3dd0314c0f7b2291e5b200ac8c7c3b9259281900390910190a3505050565b6005546040805163649a866160e01b81526001600160a01b0385811660048301529151919092169163649a8661916024808301926020929190829003018186803b158015611f0757600080fd5b505afa158015611f1b573d6000803e3d6000fd5b505050506040513d6020811015611f3157600080fd5b50511561201d57600560009054906101000a90046001600160a01b03166001600160a01b03166376ffb9bd6040518163ffffffff1660e01b815260040160206040518083038186803b158015611f8657600080fd5b505afa158015611f9a573d6000803e3d6000fd5b505050506040513d6020811015611fb057600080fd5b5051604080516340c10f1960e01b81526001600160a01b03868116600483015260248201859052915191909216916340c10f1991604480830192600092919082900301818387803b15801561200457600080fd5b505af1158015612018573d6000803e3d6000fd5b505050505b612028838383612334565b505050565b600080600560009054906101000a90046001600160a01b03166001600160a01b031663017e7e586040518163ffffffff1660e01b815260040160206040518083038186803b15801561207e57600080fd5b505afa158015612092573d6000803e3d6000fd5b505050506040513d60208110156120a857600080fd5b5051600b546001600160a01b03821615801594509192509061216357801561215e5760006120e561102b6001600160701b03888116908816611be9565b905060006120f283612177565b90508082111561215b57600061211461210b8484611c4c565b60005490611be9565b9050600061213783612131600c5487611be990919063ffffffff16565b906123e2565b9050600081838161214457fe5b04905080156121575761215787826121c9565b5050505b50505b61216f565b801561216f576000600b555b505092915050565b600060038211156121ba575080600160028204015b818110156121b4578091506002818285816121a357fe5b0401816121ac57fe5b04905061218c565b506121c4565b81156121c4575060015b919050565b6000546121d690826123e2565b60009081556001600160a01b0383168152600160205260409020546121fb90826123e2565b6001600160a01b03831660008181526001602090815260408083209490945583518581529351929391927fddf252ad1be2c89b69c2b068fc378daa952ba7f163c4a11628f55a4df523b3ef9281900390910190a35050565b60008183106122625781612264565b825b9392505050565b6001600160a01b03821660009081526001602052604090205461228e9082611c4c565b6001600160a01b038316600090815260016020526040812091909155546122b59082611c4c565b60009081556040805183815290516001600160a01b038516917fddf252ad1be2c89b69c2b068fc378daa952ba7f163c4a11628f55a4df523b3ef919081900360200190a35050565b6001600160701b0316600160701b0290565b60006001600160701b0382166001600160e01b0384168161232c57fe5b049392505050565b6001600160a01b0383166000908152600160205260409020546123579082611c4c565b6001600160a01b03808516600090815260016020526040808220939093559084168152205461238690826123e2565b6001600160a01b0380841660008181526001602090815260409182902094909455805185815290519193928716927fddf252ad1be2c89b69c2b068fc378daa952ba7f163c4a11628f55a4df523b3ef92918290030190a3505050565b80820182811015610b69576040805162461bcd60e51b815260206004820152601460248201527364732d6d6174682d6164642d6f766572666c6f7760601b604482015290519081900360640190fdfe5542414465783a20494e53554646494349454e545f4c49515549444954595f4d494e5445445542414465783a20494e53554646494349454e545f4f55545055545f414d4f554e545542414465783a20494e53554646494349454e545f4c49515549444954595f4255524e45445542414465783a20494e53554646494349454e545f494e5055545f414d4f554e54a2646970667358221220558524b782f4006dd65ec67300207abc414de052d5cf19fdf72535818a32231164736f6c634300060c0033",
  "linkReferences": {},
  "deployedLinkReferences": {}
}