{
  "_format": "hh-sol-artifact-1",
  "contractName": "StakingPool",
  "sourceName": "contracts/StakingPool.sol",
  "abi": [
    {
      "inputs": [
        {
          "internalType": "address",
          "name": "initialOwner",
          "type": "address"
        },
        {
          "internalType": "contract IBERA20",
          "name": "_uba",
          "type": "address"
        },
        {
          "internalType": "address",
          "name": "_devaddr",
          "type": "address"
        },
        {
          "internalType": "address",
          "name": "_feeAddress",
          "type": "address"
        },
        {
          "internalType": "uint256",
          "name": "_ubaPerBlock",
          "type": "uint256"
        },
        {
          "internalType": "uint256",
          "name": "_startBlock",
          "type": "uint256"
        }
      ],
      "stateMutability": "nonpayable",
      "type": "constructor"
    },
    {
      "inputs": [
        {
          "internalType": "address",
          "name": "owner",
          "type": "address"
        }
      ],
      "name": "OwnableInvalidOwner",
      "type": "error"
    },
    {
      "inputs": [
        {
          "internalType": "address",
          "name": "account",
          "type": "address"
        }
      ],
      "name": "OwnableUnauthorizedAccount",
      "type": "error"
    },
    {
      "anonymous": false,
      "inputs": [
        {
          "indexed": true,
          "internalType": "address",
          "name": "user",
          "type": "address"
        },
        {
          "indexed": true,
          "internalType": "uint256",
          "name": "pid",
          "type": "uint256"
        },
        {
          "indexed": false,
          "internalType": "uint256",
          "name": "amount",
          "type": "uint256"
        }
      ],
      "name": "Deposit",
      "type": "event"
    },
    {
      "anonymous": false,
      "inputs": [
        {
          "indexed": true,
          "internalType": "address",
          "name": "user",
          "type": "address"
        },
        {
          "indexed": true,
          "internalType": "uint256",
          "name": "pid",
          "type": "uint256"
        },
        {
          "indexed": false,
          "internalType": "uint256",
          "name": "amount",
          "type": "uint256"
        }
      ],
      "name": "EmergencyWithdraw",
      "type": "event"
    },
    {
      "anonymous": false,
      "inputs": [
        {
          "indexed": true,
          "internalType": "address",
          "name": "previousOwner",
          "type": "address"
        },
        {
          "indexed": true,
          "internalType": "address",
          "name": "newOwner",
          "type": "address"
        }
      ],
      "name": "OwnershipTransferred",
      "type": "event"
    },
    {
      "anonymous": false,
      "inputs": [
        {
          "indexed": true,
          "internalType": "address",
          "name": "user",
          "type": "address"
        },
        {
          "indexed": true,
          "internalType": "uint256",
          "name": "pid",
          "type": "uint256"
        },
        {
          "indexed": false,
          "internalType": "uint256",
          "name": "amount",
          "type": "uint256"
        }
      ],
      "name": "Withdraw",
      "type": "event"
    },
    {
      "inputs": [],
      "name": "BONUS_MULTIPLIER",
      "outputs": [
        {
          "internalType": "uint256",
          "name": "",
          "type": "uint256"
        }
      ],
      "stateMutability": "view",
      "type": "function"
    },
    {
      "inputs": [
        {
          "internalType": "uint256",
          "name": "_allocPoint",
          "type": "uint256"
        },
        {
          "internalType": "contract IBERA20",
          "name": "_lpToken",
          "type": "address"
        },
        {
          "internalType": "uint16",
          "name": "_depositFeeBP",
          "type": "uint16"
        },
        {
          "internalType": "bool",
          "name": "_withUpdate",
          "type": "bool"
        }
      ],
      "name": "add",
      "outputs": [],
      "stateMutability": "nonpayable",
      "type": "function"
    },
    {
      "inputs": [
        {
          "internalType": "uint256",
          "name": "_pid",
          "type": "uint256"
        },
        {
          "internalType": "uint256",
          "name": "_amount",
          "type": "uint256"
        }
      ],
      "name": "deposit",
      "outputs": [],
      "stateMutability": "nonpayable",
      "type": "function"
    },
    {
      "inputs": [
        {
          "internalType": "address",
          "name": "_devaddr",
          "type": "address"
        }
      ],
      "name": "dev",
      "outputs": [],
      "stateMutability": "nonpayable",
      "type": "function"
    },
    {
      "inputs": [],
      "name": "devaddr",
      "outputs": [
        {
          "internalType": "address",
          "name": "",
          "type": "address"
        }
      ],
      "stateMutability": "view",
      "type": "function"
    },
    {
      "inputs": [
        {
          "internalType": "uint256",
          "name": "_pid",
          "type": "uint256"
        }
      ],
      "name": "emergencyWithdraw",
      "outputs": [],
      "stateMutability": "nonpayable",
      "type": "function"
    },
    {
      "inputs": [],
      "name": "feeAddress",
      "outputs": [
        {
          "internalType": "address",
          "name": "",
          "type": "address"
        }
      ],
      "stateMutability": "view",
      "type": "function"
    },
    {
      "inputs": [
        {
          "internalType": "uint256",
          "name": "_from",
          "type": "uint256"
        },
        {
          "internalType": "uint256",
          "name": "_to",
          "type": "uint256"
        }
      ],
      "name": "getMultiplier",
      "outputs": [
        {
          "internalType": "uint256",
          "name": "",
          "type": "uint256"
        }
      ],
      "stateMutability": "pure",
      "type": "function"
    },
    {
      "inputs": [],
      "name": "massUpdatePools",
      "outputs": [],
      "stateMutability": "nonpayable",
      "type": "function"
    },
    {
      "inputs": [],
      "name": "owner",
      "outputs": [
        {
          "internalType": "address",
          "name": "",
          "type": "address"
        }
      ],
      "stateMutability": "view",
      "type": "function"
    },
    {
      "inputs": [
        {
          "internalType": "uint256",
          "name": "_pid",
          "type": "uint256"
        },
        {
          "internalType": "address",
          "name": "_user",
          "type": "address"
        }
      ],
      "name": "pendingUba",
      "outputs": [
        {
          "internalType": "uint256",
          "name": "",
          "type": "uint256"
        }
      ],
      "stateMutability": "view",
      "type": "function"
    },
    {
      "inputs": [
        {
          "internalType": "uint256",
          "name": "",
          "type": "uint256"
        }
      ],
      "name": "poolInfo",
      "outputs": [
        {
          "internalType": "contract IBERA20",
          "name": "lpToken",
          "type": "address"
        },
        {
          "internalType": "uint256",
          "name": "allocPoint",
          "type": "uint256"
        },
        {
          "internalType": "uint256",
          "name": "lastRewardBlock",
          "type": "uint256"
        },
        {
          "internalType": "uint256",
          "name": "accUbaPerShare",
          "type": "uint256"
        },
        {
          "internalType": "uint16",
          "name": "depositFeeBP",
          "type": "uint16"
        }
      ],
      "stateMutability": "view",
      "type": "function"
    },
    {
      "inputs": [],
      "name": "poolLength",
      "outputs": [
        {
          "internalType": "uint256",
          "name": "",
          "type": "uint256"
        }
      ],
      "stateMutability": "view",
      "type": "function"
    },
    {
      "inputs": [],
      "name": "renounceOwnership",
      "outputs": [],
      "stateMutability": "nonpayable",
      "type": "function"
    },
    {
      "inputs": [
        {
          "internalType": "uint256",
          "name": "_pid",
          "type": "uint256"
        },
        {
          "internalType": "uint256",
          "name": "_allocPoint",
          "type": "uint256"
        },
        {
          "internalType": "uint16",
          "name": "_depositFeeBP",
          "type": "uint16"
        },
        {
          "internalType": "bool",
          "name": "_withUpdate",
          "type": "bool"
        }
      ],
      "name": "set",
      "outputs": [],
      "stateMutability": "nonpayable",
      "type": "function"
    },
    {
      "inputs": [
        {
          "internalType": "address",
          "name": "_feeAddress",
          "type": "address"
        }
      ],
      "name": "setFeeAddress",
      "outputs": [],
      "stateMutability": "nonpayable",
      "type": "function"
    },
    {
      "inputs": [],
      "name": "startBlock",
      "outputs": [
        {
          "internalType": "uint256",
          "name": "",
          "type": "uint256"
        }
      ],
      "stateMutability": "view",
      "type": "function"
    },
    {
      "inputs": [],
      "name": "totalAllocPoint",
      "outputs": [
        {
          "internalType": "uint256",
          "name": "",
          "type": "uint256"
        }
      ],
      "stateMutability": "view",
      "type": "function"
    },
    {
      "inputs": [
        {
          "internalType": "address",
          "name": "newOwner",
          "type": "address"
        }
      ],
      "name": "transferOwnership",
      "outputs": [],
      "stateMutability": "nonpayable",
      "type": "function"
    },
    {
      "inputs": [],
      "name": "uba",
      "outputs": [
        {
          "internalType": "contract IBERA20",
          "name": "",
          "type": "address"
        }
      ],
      "stateMutability": "view",
      "type": "function"
    },
    {
      "inputs": [],
      "name": "ubaPerBlock",
      "outputs": [
        {
          "internalType": "uint256",
          "name": "",
          "type": "uint256"
        }
      ],
      "stateMutability": "view",
      "type": "function"
    },
    {
      "inputs": [
        {
          "internalType": "uint256",
          "name": "_ubaPerBlock",
          "type": "uint256"
        }
      ],
      "name": "updateEmissionRate",
      "outputs": [],
      "stateMutability": "nonpayable",
      "type": "function"
    },
    {
      "inputs": [
        {
          "internalType": "uint256",
          "name": "_pid",
          "type": "uint256"
        }
      ],
      "name": "updatePool",
      "outputs": [],
      "stateMutability": "nonpayable",
      "type": "function"
    },
    {
      "inputs": [
        {
          "internalType": "uint256",
          "name": "",
          "type": "uint256"
        },
        {
          "internalType": "address",
          "name": "",
          "type": "address"
        }
      ],
      "name": "userInfo",
      "outputs": [
        {
          "internalType": "uint256",
          "name": "amount",
          "type": "uint256"
        },
        {
          "internalType": "uint256",
          "name": "rewardDebt",
          "type": "uint256"
        }
      ],
      "stateMutability": "view",
      "type": "function"
    },
    {
      "inputs": [
        {
          "internalType": "uint256",
          "name": "_pid",
          "type": "uint256"
        },
        {
          "internalType": "uint256",
          "name": "_amount",
          "type": "uint256"
        }
      ],
      "name": "withdraw",
      "outputs": [],
      "stateMutability": "nonpayable",
      "type": "function"
    }
  ],
  "bytecode": "0x608060405260006007553480156200001657600080fd5b50604051620016cd380380620016cd83398101604081905262000039916200012c565b856001600160a01b0381166200006957604051631e4fbdf760e01b81526000600482015260240160405180910390fd5b6200007481620000c3565b50600180546001600160a01b03199081166001600160a01b03978816179091556002805482169587169590951790945560048054909416929094169190911790915560035560085550620001a8565b600080546001600160a01b038381166001600160a01b0319831681178455604051919092169283917f8be0079c531659141344cd1fd0a4f28419497f9722a3daafe3b4186f6b6457e09190a35050565b6001600160a01b03811681146200012957600080fd5b50565b60008060008060008060c087890312156200014657600080fd5b8651620001538162000113565b6020880151909650620001668162000113565b6040880151909550620001798162000113565b60608801519094506200018c8162000113565b809350506080870151915060a087015190509295509295509295565b61151580620001b86000396000f3fe608060405234801561001057600080fd5b50600436106101735760003560e01c8063715018a6116100de5780638dbb1e3a11610097578063d49e77cd11610071578063d49e77cd1461034e578063d963842214610361578063e2bbb15814610374578063f2fde38b1461038757600080fd5b80638dbb1e3a146102e157806393f1a40b146102f4578063d112aed01461033b57600080fd5b8063715018a61461028757806384e82a331461028f5780638705fcd4146102a25780638aa28550146102b55780638d88a90e146102bd5780638da5cb5b146102d057600080fd5b80634127535811610130578063412753581461022a578063441a3e701461023d57806348cd4cb11461025057806351eb05a6146102595780635312ea8e1461026c578063630b5ba11461027f57600080fd5b806301ccb99514610178578063081e3eda146101a85780630ba84cd2146101ba5780631526fe27146101cf57806317caf6f1146102185780632aaff96414610221575b600080fd5b60015461018b906001600160a01b031681565b6040516001600160a01b0390911681526020015b60405180910390f35b6005545b60405190815260200161019f565b6101cd6101c83660046112d7565b61039a565b005b6101e26101dd3660046112d7565b6103af565b604080516001600160a01b039096168652602086019490945292840191909152606083015261ffff16608082015260a00161019f565b6101ac60075481565b6101ac60035481565b60045461018b906001600160a01b031681565b6101cd61024b3660046112f0565b6103fe565b6101ac60085481565b6101cd6102673660046112d7565b6105c5565b6101cd61027a3660046112d7565b6107ed565b6101cd6108ee565b6101cd610911565b6101cd61029d36600461134c565b610925565b6101cd6102b036600461139d565b610afc565b6101ac600181565b6101cd6102cb36600461139d565b610b78565b6000546001600160a01b031661018b565b6101ac6102ef3660046112f0565b610be0565b6103266103023660046113c1565b60066020908152600092835260408084209091529082529020805460019091015482565b6040805192835260208301919091520161019f565b6101ac6103493660046113c1565b610c01565b60025461018b906001600160a01b031681565b6101cd61036f3660046113f1565b610d70565b6101cd6103823660046112f0565b610e9b565b6101cd61039536600461139d565b6110ee565b6103a261112c565b6103aa6108ee565b600355565b600581815481106103bf57600080fd5b6000918252602090912060059091020180546001820154600283015460038401546004909401546001600160a01b0390931694509092909161ffff1685565b6000600583815481106104135761041361141e565b6000918252602080832086845260068252604080852033865290925292208054600590920290920192508311156104865760405162461bcd60e51b81526020600482015260126024820152711dda5d1a191c985dce881b9bdd0819dbdbd960721b60448201526064015b60405180910390fd5b61048f846105c5565b6000816001015464e8d4a51000846003015484600001546104b0919061144a565b6104ba9190611461565b6104c49190611483565b905080156104d6576104d63382611159565b83156105615781546104e9908590611483565b8255825460405163a9059cbb60e01b8152336004820152602481018690526001600160a01b039091169063a9059cbb906044016020604051808303816000875af115801561053b573d6000803e3d6000fd5b505050506040513d601f19601f8201168201806040525081019061055f9190611496565b505b6003830154825464e8d4a51000916105789161144a565b6105829190611461565b6001830155604051848152859033907ff279e6a1f5e320cca91135676d9cb6e44ca8a08c0b88342bcdb1144f6511b5689060200160405180910390a35050505050565b6000600582815481106105da576105da61141e565b90600052602060002090600502019050806002015443116105f9575050565b80546040516370a0823160e01b81523060048201526000916001600160a01b0316906370a0823190602401602060405180830381865afa158015610641573d6000803e3d6000fd5b505050506040513d601f19601f8201168201806040525081019061066591906114b3565b905080158061067657506001820154155b1561068657504360029091015550565b6000610696836002015443610be0565b905060006007548460010154600354846106b0919061144a565b6106ba919061144a565b6106c49190611461565b6001546002549192506001600160a01b03908116916340c10f1991166106eb600a85611461565b6040516001600160e01b031960e085901b1681526001600160a01b0390921660048301526024820152604401600060405180830381600087803b15801561073157600080fd5b505af1158015610745573d6000803e3d6000fd5b50506001546040516340c10f1960e01b8152306004820152602481018590526001600160a01b0390911692506340c10f199150604401600060405180830381600087803b15801561079557600080fd5b505af11580156107a9573d6000803e3d6000fd5b50505050828164e8d4a510006107bf919061144a565b6107c99190611461565b84600301546107d891906114cc565b60038501555050436002909201919091555050565b6000600582815481106108025761080261141e565b60009182526020808320858452600682526040808520338087529352808520805486825560018201969096556005949094029091018054915163a9059cbb60e01b815260048101939093526024830185905294509192916001600160a01b03169063a9059cbb906044016020604051808303816000875af115801561088b573d6000803e3d6000fd5b505050506040513d601f19601f820116820180604052508101906108af9190611496565b50604051818152849033907fbb757047c2b5f3974fe26b7c10f732e7bce710b0952a71082702781e62ae0595906020015b60405180910390a350505050565b60055460005b8181101561090d57610905816105c5565b6001016108f4565b5050565b61091961112c565b6109236000611287565b565b61092d61112c565b6127108261ffff1611156109915760405162461bcd60e51b815260206004820152602560248201527f6164643a20696e76616c6964206465706f7369742066656520626173697320706044820152646f696e747360d81b606482015260840161047d565b801561099f5761099f6108ee565b600060085443116109b2576008546109b4565b435b9050846007546109c491906114cc565b6007556040805160a0810182526001600160a01b0395861681526020810196875290810191825260006060820181815261ffff95861660808401908152600580546001810182559381905293517f036b6384b5eca791c62761152d0c79bb0604c104a5fb6f4eb0703f3154bb3db09390940292830180546001600160a01b031916949098169390931790965595517f036b6384b5eca791c62761152d0c79bb0604c104a5fb6f4eb0703f3154bb3db187015590517f036b6384b5eca791c62761152d0c79bb0604c104a5fb6f4eb0703f3154bb3db286015592517f036b6384b5eca791c62761152d0c79bb0604c104a5fb6f4eb0703f3154bb3db38501555090517f036b6384b5eca791c62761152d0c79bb0604c104a5fb6f4eb0703f3154bb3db4909201805461ffff191692909116919091179055565b6004546001600160a01b03163314610b565760405162461bcd60e51b815260206004820152601860248201527f736574466565416464726573733a20464f5242494444454e0000000000000000604482015260640161047d565b600480546001600160a01b0319166001600160a01b0392909216919091179055565b6002546001600160a01b03163314610bbe5760405162461bcd60e51b81526020600482015260096024820152686465763a207775743f60b81b604482015260640161047d565b600280546001600160a01b0319166001600160a01b0392909216919091179055565b60006001610bee8484611483565b610bf8919061144a565b90505b92915050565b60008060058481548110610c1757610c1761141e565b600091825260208083208784526006825260408085206001600160a01b03898116875293528085206005949094029091016003810154815492516370a0823160e01b815230600482015291965093949291909116906370a0823190602401602060405180830381865afa158015610c92573d6000803e3d6000fd5b505050506040513d601f19601f82011682018060405250810190610cb691906114b3565b9050836002015443118015610cca57508015155b15610d38576000610cdf856002015443610be0565b90506000600754866001015460035484610cf9919061144a565b610d03919061144a565b610d0d9190611461565b905082610d1f8264e8d4a5100061144a565b610d299190611461565b610d3390856114cc565b935050505b6001830154835464e8d4a5100090610d5190859061144a565b610d5b9190611461565b610d659190611483565b979650505050505050565b610d7861112c565b6127108261ffff161115610ddc5760405162461bcd60e51b815260206004820152602560248201527f7365743a20696e76616c6964206465706f7369742066656520626173697320706044820152646f696e747360d81b606482015260840161047d565b8015610dea57610dea6108ee565b8260058581548110610dfe57610dfe61141e565b906000526020600020906005020160010154600754610e1d9190611483565b610e2791906114cc565b6007819055508260058581548110610e4157610e4161141e565b9060005260206000209060050201600101819055508160058581548110610e6a57610e6a61141e565b906000526020600020906005020160040160006101000a81548161ffff021916908361ffff16021790555050505050565b600060058381548110610eb057610eb061141e565b60009182526020808320868452600682526040808520338652909252922060059091029091019150610ee1846105c5565b805415610f31576000816001015464e8d4a5100084600301548460000154610f09919061144a565b610f139190611461565b610f1d9190611483565b90508015610f2f57610f2f3382611159565b505b82156110945781546040516323b872dd60e01b8152336004820152306024820152604481018590526001600160a01b03909116906323b872dd906064016020604051808303816000875af1158015610f8d573d6000803e3d6000fd5b505050506040513d601f19601f82011682018060405250810190610fb19190611496565b50600482015461ffff161561108457600482015460009061271090610fda9061ffff168661144a565b610fe49190611461565b83546004805460405163a9059cbb60e01b81526001600160a01b03918216928101929092526024820184905292935091169063a9059cbb906044016020604051808303816000875af115801561103e573d6000803e3d6000fd5b505050506040513d601f19601f820116820180604052508101906110629190611496565b50815481906110729086906114cc565b61107c9190611483565b825550611094565b80546110919084906114cc565b81555b6003820154815464e8d4a51000916110ab9161144a565b6110b59190611461565b6001820155604051838152849033907f90890809c654f11d6e72a28fa60149770a0d11ec6c92319d6ceb2bb0a4ea1a15906020016108e0565b6110f661112c565b6001600160a01b03811661112057604051631e4fbdf760e01b81526000600482015260240161047d565b61112981611287565b50565b6000546001600160a01b031633146109235760405163118cdaa760e01b815233600482015260240161047d565b6001546040516370a0823160e01b81523060048201526000916001600160a01b0316906370a0823190602401602060405180830381865afa1580156111a2573d6000803e3d6000fd5b505050506040513d601f19601f820116820180604052508101906111c691906114b3565b90508082111561124e5760015460405163a9059cbb60e01b81526001600160a01b038581166004830152602482018490529091169063a9059cbb906044015b6020604051808303816000875af1158015611224573d6000803e3d6000fd5b505050506040513d601f19601f820116820180604052508101906112489190611496565b50505050565b60015460405163a9059cbb60e01b81526001600160a01b038581166004830152602482018590529091169063a9059cbb90604401611205565b600080546001600160a01b038381166001600160a01b0319831681178455604051919092169283917f8be0079c531659141344cd1fd0a4f28419497f9722a3daafe3b4186f6b6457e09190a35050565b6000602082840312156112e957600080fd5b5035919050565b6000806040838503121561130357600080fd5b50508035926020909101359150565b6001600160a01b038116811461112957600080fd5b803561ffff8116811461133957600080fd5b919050565b801515811461112957600080fd5b6000806000806080858703121561136257600080fd5b84359350602085013561137481611312565b925061138260408601611327565b915060608501356113928161133e565b939692955090935050565b6000602082840312156113af57600080fd5b81356113ba81611312565b9392505050565b600080604083850312156113d457600080fd5b8235915060208301356113e681611312565b809150509250929050565b6000806000806080858703121561140757600080fd5b843593506020850135925061138260408601611327565b634e487b7160e01b600052603260045260246000fd5b634e487b7160e01b600052601160045260246000fd5b8082028115828204841417610bfb57610bfb611434565b60008261147e57634e487b7160e01b600052601260045260246000fd5b500490565b81810381811115610bfb57610bfb611434565b6000602082840312156114a857600080fd5b81516113ba8161133e565b6000602082840312156114c557600080fd5b5051919050565b80820180821115610bfb57610bfb61143456fea2646970667358221220bc67938ca1770bf6e3f42d1aa09aff84dd8dc91c690bdc5669f88ca2127f90b964736f6c63430008170033",
  "linkReferences": {},
  "deployedLinkReferences": {}
}